:020000022000DC
:10700000C0330020E5A302003D260300B9A302001F
:10701000B9A30200B9A30200B9A302000000000056
:10702000000000000000000000000000C59F0200FA
:10703000B9A3020000000000619F0200B9A3020092
:1070400081A0020081A0020081A0020081A00200B4
:1070500081A0020081A0020081A0020081A00200A4
:1070600081A0020081A0020081A0020081A0020094
:1070700081A0020081A0020081A0020081A0020084
:1070800081A0020081A0020081A0020081A0020074
:1070900081A0020081A0020081A0020081A0020064
:1070A00081A0020081A0020081A0020081A0020054
:1070B00081A0020081A0020081A0020081A0020044
:1070C00081A0020081A0020081A0020081A0020034
:1070D00081A0020081A0020081A0020081A0020024
:1070E00081A0020081A0020081A0020081A0020014
:1070F00081A0020081A0020081A0020081A0020004
:1071000081F0004102E000BF83F0004330B54FEA58
:1071100041044FEA430594EA050F08BF90EA020FC5
:107120001FBF54EA000C55EA020C7FEA645C7FEA58
:10713000655C00F0E2804FEA5454D4EB5555B8BF7B
:107140006D420CDD2C4480EA020281EA030382EAEC
:10715000000083EA010180EA020281EA0303362D7E
:1071600088BF30BD11F0004F4FEA01314FF4801C51
:107170004CEA113102D0404261EB410113F0004F63
:107180004FEA03334CEA133302D0524263EB43031A
:1071900094EA050F00F0A780A4F10104D5F1200EB8
:1071A0000DDB02FA0EFC22FA05F2801841F1000113
:1071B00003FA0EF2801843FA05F359410EE0A5F1E7
:1071C00020050EF1200E012A03FA0EFC28BF4CF018
:1071D000020C43FA05F3C01851EBE37101F00045CE
:1071E00007D54FF0000EDCF1000C7EEB00006EEBDB
:1071F0000101B1F5801F1BD3B1F5001F0CD3490865
:107200005FEA30004FEA3C0C04F101044FEA4452BB
:1072100012F5800F80F09A80BCF1004F08BF5FEA42
:10722000500C50F1000041EB045141EA050130BD22
:107230005FEA4C0C404141EB0101013C28BFB1F534
:10724000801FE9D291F0000F04BF01460020B1FA7F
:1072500081F308BF2033A3F10B03B3F120020CDA52
:107260000C3208DD02F1140CC2F10C0201FA0CF030
:1072700021FA02F10CE002F11402D8BFC2F1200C95
:1072800001FA02F120FA0CFCDCBF41EA0C0190404B
:10729000E41AA2BF01EB0451294330BD6FEA040494
:1072A0001F3C1CDA0C340EDC04F11404C4F120027F
:1072B00020FA04F001FA02F340EA030021FA04F391
:1072C00045EA030130BDC4F10C04C4F1200220FAE8
:1072D00002F001FA04F340EA0300294630BD21FA26
:1072E00004F0294630BD94F0000F83F4801306BFEC
:1072F00081F480110134013D4EE77FEA645C18BFE0
:107300007FEA655C29D094EA050F08BF90EA020F76
:1073100005D054EA000C04BF1946104630BD91EA6E
:10732000030F1EBF0021002030BD5FEA545C05D171
:107330004000494128BF41F0004130BD14F58004B0
:107340003CBF01F5801130BD01F0004545F0FE4124
:1073500041F470014FF0000030BD7FEA645C1ABF59
:10736000194610467FEA655C1CBF0B46024650EA90
:10737000013406BF52EA033591EA030F41F40021BC
:1073800030BD00BF90F0000F04BF0021704730B542
:107390004FF4806404F132044FF000054FF0000117
:1073A00050E700BF90F0000F04BF0021704730B5D8
:1073B0004FF4806404F1320410F0004548BF4042AD
:1073C0004FF000013EE700BF42004FEAE2014FEA02
:1073D00031014FEA02701FBF12F07F4393F07F4FDD
:1073E00081F06051704732F07F4208BF704793F0E0
:1073F0007F4F04BF41F40021704730B54FF46074F3
:1074000001F0004521F000411CE700BF50EA0102F5
:1074100008BF704730B54FF000050AE050EA01029E
:1074200008BF704730B511F0004502D5404261EB0E
:1074300041014FF4806404F132045FEA915C3FF44F
:10744000D8AE4FF003025FEADC0C18BF03325FEAEC
:10745000DC0C18BF033202EBDC02C2F1200300FA9D
:1074600003FC20FA02F001FA03FE40EA0E0021FAC2
:1074700002F11444BDE600BF70B54FF0FF0C4CF4B0
:10748000E06C1CEA11541DBF1CEA135594EA0C0F62
:1074900095EA0C0F00F0DEF82C4481EA030621EA9D
:1074A0004C5123EA4C5350EA013518BF52EA0335D8
:1074B00041F4801143F4801338D0A0FB02CE4FF08A
:1074C0000005E1FB02E506F00042E0FB03E54FF0BA
:1074D0000006E1FB03569CF0000F18BF4EF0010EB2
:1074E000A4F1FF04B6F5007F64F5407404D25FEAAE
:1074F0004E0E6D4146EB060642EAC62141EA555161
:107500004FEAC52040EA5E504FEACE2EB4F1FD0CA2
:1075100088BFBCF5E06F1ED8BEF1004F08BF5FEA20
:10752000500E50F1000041EB045170BD06F00046D2
:1075300046EA010140EA020081EA0301B4EB5C047F
:10754000C2BFD4EB0C0541EA045170BD41F4801177
:107550004FF0000E013C00F3AB8014F1360FDEBF9C
:10756000002001F0004170BDC4F10004203C35DA78
:107570000C341BDC04F11404C4F1200500FA05F3FB
:1075800020FA04F001FA05F240EA020001F000429C
:1075900021F0004110EBD37021FA04F642EB060112
:1075A0005EEA430E08BF20EAD37070BDC4F10C043C
:1075B000C4F1200500FA04F320FA05F001FA04F200
:1075C00040EA020001F0004110EBD37041F10001EC
:1075D0005EEA430E08BF20EAD37070BDC4F12005F7
:1075E00000FA05F24EEA020E20FA04F301FA05F25F
:1075F00043EA020321FA04F001F0004121FA04F207
:1076000020EA020000EBD3705EEA430E08BF20EAD6
:10761000D37070BD94F0000F0FD101F00046400010
:1076200041EB010111F4801F08BF013CF7D041EA92
:10763000060195F0000F18BF704703F00046520096
:1076400043EB030313F4801F08BF013DF7D043EA67
:107650000603704794EA0C0F0CEA135518BF95EA1D
:107660000C0F0CD050EA410618BF52EA4306D1D1A4
:1076700081EA030101F000414FF0000070BD50EAC3
:10768000410606BF1046194652EA430619D094EA4D
:107690000C0F02D150EA013613D195EA0C0F05D137
:1076A00052EA03361CBF104619460AD181EA03018B
:1076B00001F0004141F0FE4141F470014FF0000043
:1076C00070BD41F0FE4141F4780170BD70B54FF0DE
:1076D000FF0C4CF4E06C1CEA11541DBF1CEA13555E
:1076E00094EA0C0F95EA0C0F00F0A7F8A4EB050440
:1076F00081EA030E52EA03354FEA013100F0888037
:107700004FEA03334FF0805545EA131343EA1263FF
:107710004FEA022245EA111545EA10654FEA0026B4
:107720000EF000419D4208BF964244F1FD0404F56D
:10773000407402D25B084FEA3202B61A65EB0305C9
:107740005B084FEA32024FF480104FF4002CB6EB86
:10775000020E75EB030E22BFB61A754640EA0C0006
:107760005B084FEA3202B6EB020E75EB030E22BF46
:10777000B61A754640EA5C005B084FEA3202B6EB87
:10778000020E75EB030E22BFB61A754640EA9C0046
:107790005B084FEA3202B6EB020E75EB030E22BF16
:1077A000B61A754640EADC0055EA060E18D04FEAD4
:1077B000051545EA16754FEA06164FEAC30343EA74
:1077C00052734FEAC2025FEA1C1CC0D111F4801F41
:1077D0000BD141EA00014FF000004FF0004CB6E73A
:1077E00011F4801F04BF01430020B4F1FD0C88BFD9
:1077F000BCF5E06F3FF6AFAEB5EB030C04BFB6EBE4
:10780000020C5FEA500C50F1000041EB045170BDD6
:107810000EF0004E4EEA113114EB5C04C2BFD4EB03
:107820000C0541EA045170BD41F480114FF0000E87
:10783000013C90E645EA060E8DE60CEA135594EA03
:107840000C0F08BF95EA0C0F3FF43BAF94EA0C0F06
:107850000AD150EA01347FF434AF95EA0C0F7FF47B
:1078600025AF104619462CE795EA0C0F06D152EACF
:1078700003353FF4FDAE1046194622E750EA4106B3
:1078800018BF52EA43067FF4C5AE50EA41047FF4C4
:107890000DAF52EA43057FF4EBAE12E74FEA410227
:1078A00012F5001215D211D56FF47873B3EB625252
:1078B00012D94FEAC12343F0004343EA505311F079
:1078C000004F23FA02F018BF404270474FF000000B
:1078D000704750EA013005D111F0004008BF6FF049
:1078E000004070474FF00000704700BF4FEA410270
:1078F000B2F1E04324BFB3F5001CDCF1FE5C0DD90E
:1079000001F0004C4FEAC0024CEA5070B2F1004F57
:1079100040EB830008BF20F00100704711F0804F5A
:1079200021D113F13872BCBF01F00040704741F41F
:1079300080114FEA5252C2F11802C2F1200C10FA23
:107940000CF320FA02F018BF40F001004FEAC12307
:107950004FEAD32303FA0CFC40EA0C0023FA02F3AB
:107960004FEA4303CCE77FEA625307D150EA013381
:107970001EBF4FF0FE4040F44000704701F0004051
:1079800040F0FE4040F40000704700BF80F000402F
:1079900002E000BF81F0004142001FBF5FEA4103E7
:1079A00092EA030F7FEA226C7FEA236C6AD04FEAE7
:1079B0001262D2EB1363C1BFD2184140484041402C
:1079C000B8BF5B42192B88BF704710F0004F40F4DE
:1079D000000020F07F4018BF404211F0004F41F4FA
:1079E000000121F07F4118BF494292EA030F3FD0C6
:1079F000A2F1010241FA03FC10EB0C00C3F12003D9
:107A000001FA03F100F0004302D5494260EB400067
:107A1000B0F5000F13D3B0F1807F06D340084FEAD2
:107A2000310102F10102FE2A51D2B1F1004F40EBC7
:107A3000C25008BF20F0010040EA0300704749002F
:107A400040EB0000013A28BFB0F5000FEDD2B0FACC
:107A500080FCACF1080CB2EB0C0200FA0CF0AABFEF
:107A600000EBC25052421843BCBFD040184370478D
:107A700092F0000F81F4000106BF80F40000013293
:107A8000013BB5E74FEA41037FEA226C18BF7FEA6A
:107A9000236C21D092EA030F04D092F0000F08BFAC
:107AA0000846704790EA010F1CBF0020704712F093
:107AB0007F4F04D1400028BF40F00040704712F1D2
:107AC00000723CBF00F50000704700F0004343F037
:107AD000FE4040F4000070477FEA226216BF08466D
:107AE0007FEA23630146420206BF5FEA412390EA30
:107AF000010F40F4800070474FF0000304E000BF26
:107B000010F0004348BF40425FEA000C08BF7047D6
:107B100043F0964301464FF000001CE050EA01029A
:107B200008BF70474FF000030AE000BF50EA0102AF
:107B300008BF704711F0004302D5404261EB41019C
:107B40005FEA010C02BF84460146002043F0B643C1
:107B500008BFA3F18053A3F50003BCFA8CF2083AE6
:107B6000A3EBC25310DB01FA02FC634400FA02FCEF
:107B7000C2F12002BCF1004F20FA02F243EB0200F6
:107B800008BF20F00100704702F1200201FA02FC58
:107B9000C2F1200250EA4C0021FA02F243EB02004B
:107BA00008BF20EADC7070474FF0FF0C1CEAD0528F
:107BB0001EBF1CEAD15392EA0C0F93EA0C0F6FD050
:107BC0001A4480EA010C400218BF5FEA41211ED02E
:107BD0004FF0006343EA501043EA5111A0FB01311A
:107BE0000CF00040B1F5000F3EBF490041EAD371EF
:107BF0005B0040EA010062F17F02FD2A1DD8B3F16B
:107C0000004F40EBC25008BF20F00100704790F0D9
:107C1000000F0CF0004C08BF49024CEA502040EA2B
:107C200051207F3AC2BFD2F1FF0340EAC2507047F1
:107C300040F400004FF00003013A5DDC12F1190F2F
:107C4000DCBF00F000407047C2F10002410021FAA1
:107C500002F1C2F1200200FA02FC5FEA310040F1B9
:107C6000000053EA4C0308BF20EADC70704792F032
:107C7000000F00F0004C02BF400010F4000F013A6A
:107C8000F9D040EA0C0093F0000F01F0004C02BF65
:107C9000490011F4000F013BF9D041EA0C018FE7D4
:107CA0000CEAD15392EA0C0F18BF93EA0C0F0AD0DA
:107CB00030F0004C18BF31F0004CD8D180EA010000
:107CC00000F00040704790F0000F17BF90F0004F99
:107CD000084691F0000F91F0004F14D092EA0C0F7B
:107CE00001D142020FD193EA0C0F03D14B0218BF0E
:107CF000084608D180EA010000F0004040F0FE4054
:107D000040F40000704740F0FE4040F440007047EF
:107D10004FF0FF0C1CEAD0521EBF1CEAD15392EA6E
:107D20000C0F93EA0C0F69D0A2EB030280EA010C5E
:107D300049024FEA402037D04FF0805343EA1111F7
:107D400043EA10130CF000408B4238BF5B0042F155
:107D50007D024FF4000C8B4224BF5B1A40EA0C00FA
:107D6000B3EB510F24BFA3EB510340EA5C00B3EB2C
:107D7000910F24BFA3EB910340EA9C00B3EBD10F1A
:107D800024BFA3EBD10340EADC001B0118BF5FEA6C
:107D90001C1CE0D1FD2A3FF650AF8B4240EBC25095
:107DA00008BF20F0010070470CF0004C4CEA502056
:107DB0007F32C2BFD2F1FF0340EAC250704740F4A5
:107DC00000004FF00003013A37E792F0000F00F097
:107DD000004C02BF400010F4000F013AF9D040EA15
:107DE0000C0093F0000F01F0004C02BF490011F4A9
:107DF000000F013BF9D041EA0C0195E70CEAD153A1
:107E000092EA0C0F08D142027FF47DAF93EA0C0F87
:107E10007FF470AF084676E793EA0C0F04D14B026B
:107E20003FF44CAF08466EE730F0004C18BF31F01D
:107E3000004CCAD130F000427FF45CAF31F0004317
:107E40007FF43CAF5FE700BF7BB972B90029BEBFCA
:107E500000204FF0004106E008BF00281CBF6FF073
:107E600000414FF0FF3000F057B8ADF1080C6DE95C
:107E700004CE002909DB002B1ADB00F04FF8DDF8F7
:107E800004E0DDE9022304B07047404261EB4101A8
:107E9000002B1BDB00F042F8DDF804E0DDE90223F3
:107EA00004B0404261EB4101524263EB430370472F
:107EB000524263EB430300F031F8DDF804E0DDE902
:107EC000022304B0404261EB41017047524263EB30
:107ED000430300F023F8DDF804E0DDE9022304B0F9
:107EE000524263EB4303704753B94AB9002908BFB4
:107EF00000281CBF4FF0FF314FF0FF3000F00CB8EE
:107F0000ADF1080C6DE904CE00F008F8DDF804E0EE
:107F1000DDE9022304B07047704700BF2DE9F04748
:107F200086468C460846089E154674461946002B20
:107F300040F0C2808542B2FA82F245D94AB1C2F11C
:107F4000200300FA02FC2EFA03F3954043EA0C0CDE
:107F500094404FEA154EA8B2BCFBFEF8230C0EFB72
:107F600018CC08FB00F943EA0C43994528D9EB18D3
:107F700008F1FF3704D2994502D9A8F102072B4432
:107F8000A3EB0903A4B2B3FBFEFC0EFB1C330CFBFA
:107F900000F044EA0344A04214D92C190CF1FF3339
:107FA00004D2A04202D9ACF102032C44241A43EAC1
:107FB00007401EB1D440002334607360BDE8F087F1
:107FC0004746DDE76346F1E792BB431B01214FEAD9
:107FD000154EAFB2B3FBFEFC200C0EFB1C330CFBAA
:107FE00007F840EA0343984562D9EB180CF1FF30DB
:107FF00004D2984502D9ACF102002B44A3EB08034C
:10800000A4B2B3FBFEFC0EFB1C330CFB07F744EAE7
:108010000344A7424ED92C190CF1FF3304D2A742D6
:1080200002D9ACF102032C44E41B43EA0040C0E750
:10803000C2F1200320FA03F1954090402EFA03F399
:1080400003434FEA154EAFB2B1FBFEFC0EFB1C1012
:10805000190C0CFB07F841EA0041884504FA02F4C8
:1080600022D969180CF1FF3004D2884502D9ACF14D
:1080700002002944A1EB08019BB2B1FBFEFC0EFB00
:108080001C110CFB07F743EA01439F420ED9EB1882
:108090000CF1FF3104D29F4202D9ACF102012B4412
:1080A000DB1B41EA004192E76046E3E76146F7E700
:1080B0006046A3E76346B7E7834206D916B90021B5
:1080C00008467BE7C6E900E0F9E7B3FA83F78FB922
:1080D000834201D3724508D8BEEB020460EB030370
:1080E00001209C461EB9002168E73846FAE7C6E938
:1080F000004CF8E7C7F1200CBB4022FA0CF41C43FB
:108100002EFA0CF120FA0CF3B84001434FEA14495F
:108110000EFA07F5B3FBF9F81FFA84FE09FB1830D5
:108120000B0C08FB0EFA43EA00439A4502FA07F2E9
:1081300040D9E31808F1FF3004D29A4502D9A8F1DA
:1081400002002344A3EB0A0389B2B3FBF9F809FB4D
:10815000183308FB0EFE41EA03418E452CD9611805
:1081600008F1FF3304D28E4502D9A8F1020321445D
:1081700043EA0040A0FB0298A1EB0E014145CE4628
:10818000434602D306D14D4504D2B9EB020E68EB4B
:1081900004030138002EA6D0B5EB0E0261EB0301FB
:1081A00001FA0CFC22FA07F34CEA0303F940C6E992
:1081B000003198E74046C5E74346D9E7034613F840
:1081C000012B002AFBD1181A01387047000000006B
:1081D000F8B5044608461546FFF7E4F80646284673
:1081E0000F46FFF7F1F802460B4630463946FFF7D7
:1081F00043F90FA3D3E90023FFF73EF90E4B00220A
:10820000FFF764FA06460F46FFF748FB0A4B20606B
:10821000002230463946FFF72FF9FFF73FFB4FF4B6
:108220007A7290FBF2F303FB120353436360F8BDD1
:1082300005A3923A019D234000408F4000000000BA
:10824000F8B5044608461546FFF7ACF8064628463A
:108250000F46FFF7B9F802460B4630463946FFF79E
:108260000BF90FA3D3E90023FFF706F90E4B002209
:10827000FFF72CFA06460F46FFF710FB0A4B20606B
:10828000002230463946FFF7F7F8FFF707FB4FF4B7
:108290007A7290FBF2F303FB120353436360F8BD61
:1082A0006811F16346DF913F00408F4000000000FD
:1082B000032970B504460D4604D0072953D06FF04A
:1082C000850027E0002A3BD0072AF8D158681A68B1
:1082D0005B4BC117C2FB0301012871F100033FDBB7
:1082E000584BC01841F100014FA3D3E90023FFF719
:1082F000ABFD022826690ED010280ED004280ED01F
:1083000008282DD1294620460AF057FC002808DA13
:108310006FF0040070BD0025F4E70125F2E70225A7
:10832000F0E7494B33F81500FFF73CF840A3D3E9D9
:108330000023FFF7A1F8FFF7D9FAF0600020E9E782
:108340001988424B33F8020B814206D1D1B2204644
:1083500003F068FD0028F1DADAE701320B2AF1D1E7
:108360006FF01500D6E7002A4DD0072AA7D15A682A
:108370001D683348D11713460A46C5FB0032B425A1
:10838000A3FB0501012B05FB021172F100022ADBA0
:108390002F4BC01828A3D3E9002341F10001FFF7B8
:1083A00053FDFA2827D0B0F5FA7F26D0B0F57A7FB2
:1083B00025D0B0F5FA6F24D07D28D1D104252946E7
:1083C000204626690AF009FC0028A1DB214B33F87E
:1083D0001500FEF7E7FF204B0022FFF74DF8FFF7EF
:1083E00085FAF061AAE71D4BC01861F1000112A3E4
:1083F000D3E90023D3E70025E1E70125DFE70225E4
:10840000DDE70325DBE71988104B33F8020B8142C7
:1084100004D1D1B220460AF0F4FB9BE701320B2ACB
:10842000F3D19DE7AFF300803AA395000000000070
:1084300008AC1C5A643BAF3FD8EF2F00000000008F
:1084400040420F009DD14A00C24B0300CA4B0300BB
:10845000ECF71700B84B0300008011401408E8FF48
:1084600038B504464068FFF74BFB0649FFF750FC60
:1084700005462068FFF744FB01462846FFF78CFAC3
:1084800038BD00BF0024744970B5094C0E46014642
:108490002046154609F0EAFB314604F1080009F0D0
:1084A000E5FB294604F11000BDE8704009F0DEBB91
:1084B000F84603002DE9F04704468368DFF8A4A0DE
:1084C000DB68DFF8A490DFF8A480032198475246C8
:1084D0002046002109F0DEFB4A462046012109F032
:1084E000D9FB42460221204609F0D4FBA368204F65
:1084F000DB68204E204D0721204698473A4604214C
:10850000204609F0C7FB32460521204609F0C2FB90
:108510002A460621204609F0BDFB184B1A68FAB11D
:108520009AE8030000221A60154B83E8030099E8DB
:108530000300144B83E8030098E80300124B83E820
:10854000030097E80300114B83E8030096E803005B
:108550000F4B83E8030095E803000E4B83E803000C
:10856000BDE8F08760070020580700205007002072
:108570004807002040070020380700209807002007
:10858000900700208807002080070020780700203F
:1085900070070020680700202DE9F0436C4C99B06B
:1085A0000025012720680BF0E4F838B9694829460E
:1085B00009F085FB002019B0BDE8F083206821791F
:1085C000E388D0F810C0D0F80880DCF80060DA0743
:1085D00054BF43F4D01383F4B01323F4801207FA8A
:1085E00001FEDB074CBF46EA0E0626EA0E06CCF873
:1085F0000060D8F800309847002802DA564829462B
:10860000D6E70135032D04F10804CBD10022114631
:108610000120FFF739FF642009F03FFB4F4C204653
:108620000BF0A7F818B94E4809F049FBC2E76823D8
:108630000027CDE90637A668D6F80080B8F1000F0C
:1086400001D14848F0E706AB3A4629462046C047E4
:108650000028F6DB35680DB94348E5E706AB3A4636
:1086600007212046A8470028F6DB404B0593B36856
:108670000BB93F48D8E73F4A05A92046984700284C
:10868000F7D13A21F36820469847002801DA3A48A2
:10869000CAE7002210460121FFF7F6FE642009F028
:1086A000FCFADFF8D8904FF00108002101220846BB
:1086B000FFF7EAFE4846FFF7D3FEFEF785FE0446C5
:1086C0002F480D46FFF7CCFEFEF77EFE06462D48EE
:1086D0000F46FFF7C5FEFEF777FE22462B46CDE993
:1086E0000201CDE90067284908A808F0A3F808A905
:1086F000264809F0E4FA2648FFF7B2FEFEF764FECA
:10870000044624480D46FFF7ABFEFEF75DFE064625
:1087100021480F46FFF7A4FEFEF756FE2246CDE99C
:1087200002012B46CDE900671C4908A808F082F831
:1087300008A91B4809F0C3FA00221A4B104611463B
:10874000C3F80080FFF7A0FE322009F0A6FAACE7DC
:10875000F8460300044C0300174C0300E8410300F3
:108760002C4C0300404C0300724C0300010003003A
:108770009B4C0300B5840200C24C0300900700200C
:108780008807002080070020DE4C0300024D030014
:10879000780700207007002068070020064D0300BE
:1087A000264D030098070020014B1B68184700BFA7
:1087B000B0000020014B1860704700BFB0000020DF
:1087C00030B585B004460D461022002168460BF0F6
:1087D00009FB02238DF802302A46044B01932146FF
:1087E000684608F0EBF805B030BD00BFA98702006D
:1087F00080B505460E461746984607F007FC034627
:108800000BF040FCDFF81890044649F8003042466F
:1088100030463946A84754F8090001F063FE00BF0E
:10882000080000002DE9F047058B04462807904614
:1088300011D4022905F0070540F0CD80204609F04B
:1088400031FC78B10138218B042811D8DFE800F021
:10885000C3106D85950001290CBF45F0100545F04A
:108860002005258388F31188BFF36F8FBDE8F0875B
:1088700001F0070AAA4500F0A6800027B9463E4647
:10888000A368002B00F0BD8041F00801218388F32C
:108890001188BFF36F8FA168002900F0BB800D68BD
:1088A000002900F0B780D1F80480334652462046B4
:1088B000C047002D76D02B6829461D46F0E701F011
:1088C00007035A1F012A1BD8002221F00701062B9B
:1088D000276889B2C4E9002209D13B4603E0628BD4
:1088E000013262831B68002BF9D141F00201218320
:1088F000204609F0D7FB00287BD041F0200177E02B
:10890000042B0AD121F0070189B22183204609F006
:10891000C9FB10B141F020012183218B01F0070A2E
:10892000AA4550D00027B946AAE7236921F00701DC
:1089300041F00601062DD3F8009021832DD1B9F125
:10894000000F40D041F00801218388F31188BFF364
:108950006F8F3A492046C84729E021F00701236973
:1089600041F0040189B2042DD3F804902183E6D0AC
:1089700000273E464FF0040A82E721F007012369F1
:1089800041F0050189B2052DD3F808902183D6D096
:1089900000273E464FF0050A72E700273E464FF09B
:1089A000060A6DE72B4687E7B9F1000FD1D14FF0EA
:1089B0002003EFF3118883F31288BFF36F8F238BAB
:1089C00023F008032383258BEA062ED525F0100318
:1089D000238305F007056669218B002EBFF66FAF74
:1089E00000232768C4E9003321F0070141F00101A9
:1089F0002183218B01F0070AAA454FF000097FF47B
:108A00003FAF002F9BD041F00801218388F31188EC
:108A1000BFF36F8F002FC7D03D68394633465246AB
:108A2000204609F06BFB2F46F4E7AB067FF51AAF43
:108A300025F02003238305F00705FFE62921030025
:108A400008B504464FF02002EFF3118382F3128839
:108A5000BFF36F8F03F0EAFE204601F0EDFC034800
:108A600009F02DF901F0E0F9FCE700BF3C4D0300EF
:108A700003F00EBFF0B40C4B0C4E5F6A0C4BB342CC
:108A800003D36FF08500F0BC70475D68BD4209D329
:108A90001C693CB195F802C00579AC4502D123466A
:108AA000F0BC18472433EAE79C0700201404002098
:108AB000F00300202DE9F047134CDFF85080DFF879
:108AC000509005460E461746444503D36FF0850087
:108AD000BDE8F0876268D9F824309A4212D3A369BE
:108AE00083B190782979884205D13A4631462846A3
:108AF000BDE8F04718475279012A03D13A4631467A
:108B0000284698472434DFE7F003002014040020AF
:108B10009C0700202DE9F0410B4CDFF83080054622
:108B20000E461746444502D36FF0850009E063699D
:108B30000BB92434F6E73A463146284698470028D0
:108B4000F7D1BDE8F08100BFF0030020140400203D
:108B500010B5044609F0ADFD10F1780F00D050B902
:108B6000054A204609F061FCD2F8C43023EA00032C
:108B7000C2F8C430002010BD9C070020024B002228
:108B80001A605A60704700BF5708002070B50B4B41
:108B90000B4CA34201D3002070BD196A1E7F002236
:108BA0000439D5B2AE4201D82433F2E7013211F8CC
:108BB00032508542F5D10120EEE700BFF0030020DE
:108BC0001404002008B509480378C3F341130A339D
:108BD00050F823303BB100F1080200F11001984732
:108BE000C043C00F08BD1846FCE700BF9C0700202B
:108BF00004282DE9F14FDFF8989004460F4616D06F
:108C000001282DD1DFF88C8098F8B93043B300F0FB
:108C100009FE214D4D4520D2D5F820B04FF0000A75
:108C20002B7F5FFA8AF6B34204D82435F2E7FFF7C8
:108C3000A5FFE7E70BEBC6060AF1010A307909F058
:108C400038FD0246307909F0F0FBD8F8C430002A2C
:108C500023EA0003C8F8C430E2DA002388F8B93008
:108C60000D4D4D4508D30B4B1B6A6BB13946204661
:108C700001B0BDE8F04F1847EB681BB13A462146FA
:108C8000284698472435ECE701B0BDE8F08F00BFD7
:108C9000140400209C070020F003002073B5C4B228
:108CA00063060D468DF8074007D02046FFF76EFF9C
:108CB00078B10D4B93F8BA0058B10B4E204655B120
:108CC00002F022F9F3691BB10DF107010820984762
:108CD000012002B070BD02F03FF9F369002BF7D01C
:108CE0000DF107010920F2E79C07002073B5867893
:108CF0008DF80060037942791C4C43EA0223ADF8F9
:108D00000230C378304603F003038DF8043009F0D5
:108D10008CFBD4F8C430184205460BD0304600F026
:108D200063FD3046FFF714FF0AF07CFD10B9962072
:108D300007F052F9684602F0C3F810F1780F03D03B
:108D400010B1002002B070BD9DF8000002F040F9A3
:108D500010F1780F01D00028F3D1D4F8C4300120ED
:108D60002B4384F8B900C4F8C430EBE79C0700201B
:108D70002DE9F047A34EB36904460F461546FBB9EB
:108D8000237803F01F03012B00F09D80022B00F0DD
:108D9000048133BB94F900002A686178002834DA32
:108DA000062912D008292BD0D9B90123137051708C
:108DB00096F8C3305B0043F00103137002232AE1ED
:108DC00098470028DCD100200DE06288100A011FBE
:108DD0000129844605D9072803D8716AD2B20C78D4
:108DE0001CB96FF01500BDE8F0874E78664503D1D9
:108DF0009A4200F00B8101332144F0E70B780AE13D
:108E000096F8BA301370012305E101390829E8D832
:108E100001A353F821F000BFB18E0200E38D0200E0
:108E2000BF8E0200E38D02003D8E0200E38D020042
:108E3000E38D0200E38D0200498E0200A07802F06B
:108E40002DF80028BFD0CCE76388756A63BBFFF7B5
:108E500095FE638886F8BA30F369002BB3D06A496F
:108E600003209847AFE76B78042B10D0052B11D067
:108E7000022B04D16F796388BB4208BF01202B7895
:108E80001D442B78002BEED10028AAD0DFE795F8FF
:108E90000380F4E76388BB42F1D1B8F1000FEED153
:108EA0002846FFF723FFEAE7FF270020B846E8E758
:108EB0006388012B95D1002386F8C33083E763884C
:108EC000012B8ED1F8E796F8BA30D5F800C0002B08
:108ED00087D0756AA38894F804E02A4610780028A1
:108EE0003FF47FAF5178022904D192F80480F04515
:108EF00000F293800244F1E78CF800208CF8012006
:108F0000396060E7154494E00B2A7FF46AAF0027CC
:108F10004FF0FF08C146BA4606E06B78042B0FD02D
:108F2000052B21D02B781D442B78002BF5D1F3692C
:108F300013B1514607209847002F7FF444AF50E704
:108F400095F80280A38895F803909845EAD1638844
:108F50009945E7D1B8F1070F1CD806EB0803AA46DC
:108F600083F8BB900127DDE7A3884345DAD1A378D6
:108F70004B450AD0AF78384600F036FC3846FFF74C
:108F8000E7FDB0FA80F77F09CCE72846FFF7AEFE91
:108F90000746C7E7AA460027C4E794F9002063788C
:108FA000002A18DA002B7FF41CAF24792D686306A1
:108FB0000AD02046FFF7EAFD00283FF412AF96F8EA
:108FC000BA30002B3FF40DAF2946204601F0E4FFF4
:108FD00000236B70F2E6012B08D0032B7FF401AF66
:108FE0006388002B7FF4FDAE012103E06188002936
:108FF0007FF4F7AEA088FFF751FE00287FF4E3AEC0
:10900000EFE600BF9C0700205608002002282960D8
:109010007FF4F4AE4B883B60D5E694F900006278AB
:109020000028BFF671AF002A3FF466AF0A2A7FF42A
:10903000D8AE2A78002A3FF4D4AE697804297FF4A8
:1090400061AFA9788B427FF45DAF072B96BF9B1968
:10905000002393F8BB308CF80030D4E613B5164CDF
:10906000237DF3B9E268A168019201AB802009F089
:10907000EAF9019AA3681344A360E3689B1AE360CA
:109080006BB962B12369E2889A4208DD94F8C8207E
:1090900093FBF2F102FB11330BB90123237502B0EC
:1090A00010BD00231A4619468020237502B0BDE882
:1090B000104001F0B7BF00BF9C07002030B585B05D
:1090C000002302460D460193002858D1002935D1CE
:1090D00008220B460DEB020109F004FB002804DA1C
:1090E000802001F011FF05B030BD2A4C029A2260A9
:1090F000039A626004F13802A2609DF90820BDF86D
:109100000E302575002AC4E903550ADB802B04D9EB
:10911000802001F0F9FE0020E3E713B1C4E9033336
:10912000E1E7FFF74FFD0028DAD0E28823699A4291
:10913000D4BFE260E360FFF791FFD4E7154CD4E9B8
:109140000215002D01AB04DC09F0CCFA0028CADAC4
:10915000C6E72A4609F0C6FA0028D9DB019AA368B7
:109160001344A360E3689B1AE360002BBBD104F1B6
:109170003803A360FFF726FD0028DCD1B0E7802884
:10918000B1D1044BDA68002AD5D11B7D002BD2D196
:10919000A9E700BF9C070020054B064A9A62064AD1
:1091A000DA62064A1A63064A58629A6100207047DA
:1091B0009C070020718D0200758A0200158B020049
:1091C000B58A02002DE9F341414D04466F6A4148DA
:1091D0004FF0FF324FF0FF3306F08EF995F8B8608C
:1091E000002E6ED13C482C62E86102F035F801F0A7
:1091F00023FE041E49DB00F039FB041E45DB7B78AF
:10920000012B61D1FB79002B5ED0684685F8C83010
:10921000ADF802308DF804608DF8006001F050FE6A
:10922000041E32DB802768468DF8007001F048FE8E
:10923000041E2ADB2949304601F0FAFF041E24DB14
:109240002649384601F0F4FF041E1EDB244CDFF8EB
:109250009480444520D3002001F0BAFE041E14DBA4
:10926000D5F8C430802043F00103C5F8C43001F0C4
:10927000AFFE041E09DBD5F8C43043F48033C5F8D3
:10928000C430012385F8B8300024124806F0AEF946
:10929000204602B0BDE8F081276A0026227FF3B2A3
:1092A0009A4201D82434D4E707EBC30257F83310AD
:1092B000107901F0BDFF01360028EFD04FF0FF34E8
:1092C000E3E76FF07704E0E76FF01504DDE700BF38
:1092D0009C07002028030020F18B0200BD900200B3
:1092E000F00300201404002010B50A4B93F8B84096
:1092F0004CB900F055F848B1FFF74EFF2046BDE8E5
:109300001040FFF75FBF6FF0770010BD4FF0FF30E8
:10931000FBE700BF9C07002030B51F4B8BB005AAB0
:1093200003F1100518685968144603C40833AB42AA
:109330002246F7D11B7823701022002101A80AF0E1
:1093400051FD1222002115480AF04CFD102101A800
:1093500009F0BDFA00281BDD0828B8BF082009382D
:1093600001AB0E491A18002012F8013F0AAC04EBB9
:10937000131403F00F0328336B44013014F8144C1A
:1093800013F8143C0C7008284B7001F10201EBD16A
:1093900002480BB030BD00BF704D0300201D0020FF
:1093A0002DE9F04F704C87B04FF0000B00264FF0C6
:1093B000011AB0463546B14623782BB96B4B0234BF
:1093C0009C42F3D1684833E06378052B1BD8DFE873
:1093D00003F09003C8901D3B402304A88DF810B003
:1093E000ADF812308DF814B009F04BF940B10823F4
:1093F00004A8ADF8123009F044F908B1ADF812B084
:10940000BDF81230E37123781C44D5E7E378002BD4
:10941000F9D1A3787BB108F101085FFA88F8F2E787
:109420006B689C4209D02435514B9D42F8D30020F3
:1094300007B0BDE8F08F4F4DF6E7AB68002BEAD0E0
:10944000414620469847E6E7002DF0D000222B7FCA
:109450009A42ECD2296AA07801EBC2010B799842BA
:1094600001D00132F3E70127E07800F003008DF826
:109470001400207994F805C040EA0C20ADF81200E1
:1094800094F902000028FBB228DA07F110004FF02F
:10949000010C0CFA00F010EA0A0F26D143F080000C
:1094A0008DF8100004A8CDE90213019209F0E9F843
:1094B000DDE90121039BC0B99DF81020A27012F0D4
:1094C000800F18BF10330A7118BFDBB24FF00102D2
:1094D00014BF9A40BA404AEA020A94E70120B84011
:1094E00010EA0A0F01D11846DAE70137102FBBD175
:1094F000B7E7032E1DD1FFF70FFF074668B1FEF750
:109500005DFE102809D13846A31C07F1100250F85F
:10951000041B43F8041B9042F9D123786FF0020139
:10952000E218091B04EB5303D14213D50136F6B2FE
:1095300069E7002EF1D1B9F1000F3FF478AFA4EB49
:10954000090389F80230C3F3072389F8033089F847
:109550000480EBE702F801BC13F8010902F8020DE0
:10956000E2E7A1464FE700BF4C030020EF030020D5
:1095700014040020F003002010B5094B00211A4606
:109580001C78844204D15C6814B102EB811010BDD8
:109590000131042903F14003F2D10020F7E700BFB5
:1095A000680800202DE9F34150F8283C10F82C6C95
:1095B0001033044610D1036950F8202C990739D58F
:1095C000EAB913F0040304D11A461946304608F0EC
:1095D0003AFF002344F8283C54F8283C10330BD0C1
:1095E00054E9077554F8148C0AF01CF900284CD083
:1095F0002C4821460AF00FFA02B0BDE8F08150F87D
:10960000241C01AB304608F01EFF10B16FF01503AB
:10961000E0E7019A54F8243C134444F8243C54F8FD
:10962000203C9B1A44F8203C54F81C3C134444F85A
:109630001C3CD1E750F8241C01AB304601F06EFD14
:109640000028E3D1019D54F8243C2B4444F8243CE9
:1096500054F8203C5B1B44F8203C54F81C3C2B4441
:1096600044F81C3C002DB4D0304601F0FBFDB5FBA6
:10967000F0F303FB1055002DABD154F8203C002B28
:10968000A7D0304601F092FDA6E744F8180CA4F1EB
:10969000100006F01BF8002DAED042463946304689
:1096A000A847A9E7180400204B1E012B73B50646F6
:1096B0000D460FD8FFF760FF044668B9012D09D1A8
:1096C00001AB01220DF10301304601F027FD019BA2
:1096D000002BF5D102B070BD0AF0A4F804F12C0102
:1096E00008B1012D05D1084602B0BDE87040FFF772
:1096F00059BF034802B0BDE870400AF08CB900BF02
:10970000180400202DE9F74F0646019115469846AA
:1097100008F0E1FE044600285CD14FF02003EFF38F
:10972000118A83F31288BFF36F8FDFF8B0B0002285
:109730000023584605F0EEFF70B9DFF8A490A701AA
:1097400009EB8414636813F1100F14D10193584688
:1097500005F0BCFF019B06E00134042C0BF1400B2B
:10976000E5D16FF00B038AF31188BFF36F8F1846B2
:1097700003B0BDE8F08F019B2061C4E902350C9B6A
:1097800063610D9BA36130466FF00F0309F807601A
:10979000C4F83C80636001F065FD58B1304601F0CB
:1097A00061FDB5FBF0F303FB10551DB1E36B43F016
:1097B0000403E36318F0020F07D007F12C010948F6
:1097C00049440AF028F90023CDE7304601F0EEFCC9
:1097D0000346C8E76FF00F03C9E700BF8408002005
:1097E000680800201804002010B54FF02003EFF3A4
:1097F000118483F31288BFF36F8FFFF7BDFE50B162
:109800004368103307D16FF08B03436000F12C01E4
:1098100003480AF000F984F31188BFF36F8F10BD7D
:109820001804002070B50F4C04254FF02003EFF30F
:10983000118683F31288BFF36F8F6368103307D1EB
:109840006FF08B030848636004F12C010AF0E3F821
:1098500086F31188BFF36F8F013D04F14004E4D11A
:1098600070BD00BF680800201804002070B50A4CC5
:109870000A4E0025314620460AF0B0F80122A4F134
:109880001000114601350AF06CF8042D04F1400473
:10989000F0D1002070BD00BF94080020A595020003
:1098A00008B50146034808F000FE10B1012300F896
:1098B000073C08BD680900200169012381F84B308D
:1098C0000B6833B191F849301BB1024808310AF0F6
:1098D000A2B87047180400200169012381F84A30BA
:1098E0000B6833B191F848301BB1024808310AF0D7
:1098F00092B870471804002038B5056995F89E00A5
:1099000088B195F89F307BB985F84830D5F890003C
:1099100008F016FD002204460023044805F1180152
:1099200006F054F8204638BD0020FCE7180400205B
:1099300013B504698DF8071094F89E30A3B194F81C
:109940009F308BB90DF10701D4F8900084F84830AE
:10995000012208F0F5FC014640B10D482122002308
:1099600004F1180106F032F802B010BDD4F89000EE
:10997000012208F039FD0028F6D0D4F89000012229
:109980000DF1070108F0DCFC0028E6D1ECE700BF90
:1099900018040020F0B5D0F88C305B681B6A1F7D7E
:1099A00085B00546384608F096FD0646E0B9A86F32
:1099B0004FF4806203A908F0E2FC0446A0B18306DC
:1099C000A5F1180308BF00F1FF3485F8306001935A
:1099D000064B03990093224602233846FFF792FE76
:1099E000A86F214608F0EBFC05B0F0BD919A02008B
:1099F00070B504460E4601791548154608F047FD36
:109A000010B394F900206378002A16DB202B04D0D1
:109A1000222B0ED06FF085000AE02B681A6840F800
:109A2000102C9A8820F80C2C9B7900F80A3C002016
:109A300070BD638800F8093CF9E7212BEAD11038A2
:109A4000072328603360F2E76FF01200F0E700BFF1
:109A5000680900200D4A03460021A0F8481010684C
:109A6000C3F8940090889279A3F8980083F89A201C
:109A700083F89C1083F89B10A3F89E1083F8A01025
:109A8000402203F14C000AF0ADB900BF504403007E
:109A900010B5012382F84830136814463BB192F8A0
:109AA0004A3023B10A4802F1080109F0B4FFD4F8A2
:109AB00090309A681B699A4208D004F11801044852
:109AC000BDE810400022002305F080BF10BD00BF9C
:109AD0001804002010B504690023C4F8A8300C4B0A
:109AE000C4F8A400596804F1A80269B9C3E90022C6
:109AF00004F10800074909F071FF04F11800064954
:109B000009F09AFF002010BD0A605A60F0E700BF1C
:109B100068090020012503009599020073B51446D9
:109B200002F14C060A1E05461FDDD4F88C003146B2
:109B300008F006FC012384F8493023683BB194F80F
:109B40004B3023B10E4804F1080109F064FFD4F84A
:109B50008C104B684A699A1ACB699B1A3F2B04D820
:109B6000012384F8A03002B070BD064B009301942D
:109B70000123402231462846FFF7C4FDF3E700BF2A
:109B8000180400201D9B020038B50D4601461E48F2
:109B900008F071FC044680B30246691E52F8A439ED
:109BA0005B68052929D8DFE801F020280320252952
:109BB00014F8061C31B91B6A187BFFF7AFFF0123AD
:109BC00004F8063C14F85C3CBBB9012304F85C3C87
:109BD00054F8A43C8BB114F85A3C73B1A4F19C0125
:109BE0000A48BDE8384009F016BFBDE838401046C5
:109BF000FFF730BF012304F8053C38BD14F8053CDD
:109C0000002BFAD00023F6E7680900201804002092
:109C100037B5094D0949002400944FF0FF334FF444
:109C20008062284605F09AFE0549284609F000FEA4
:109C3000204603B030BD00BF18040020801D002066
:109C4000B64D0300014806F04DBC00BF5C47030061
:109C500038B5044618B90F4B0F485B6898476168E0
:109C6000B1F5683F10D0B1F5680F0DD00B4DA9428A
:109C70000AD011F46861206807D00146084809F04D
:109C8000ABFD00232360656038BD14220AF0AAF8FA
:109C9000F9E700BF48020020BF4D03002C5F5CA91C
:109CA000700E002008B520B34368B3F5683F10D1AB
:109CB00001220368BFF35B8F53E8001F002903D123
:109CC00043E800200028F7D1BFF35B8F0DD10020BF
:109CD00008BD094A93420AD000684FF0FF324FF0A6
:109CE000FF3305F009FC0028F1D00448F0E70448F0
:109CF000EEE76FF4E040EBE72C5F5CA9E98FFFFF34
:109D0000EA8FFFFF08B5D8B14368B3F5683F10D1BB
:109D100000220368BFF35B8F53E8001F012903D1C2
:109D200043E800200028F7D1BFF35B8F0BD1002060
:109D300008BD074A934208D0006805F057FCF6E7D3
:109D40006FF4E040F4E70348F2E70348F0E700BFB0
:109D50002C5F5CA9E98FFFFFEA8FFFFF10B5044677
:109D600018B91D4B1D485B6898476368B3F5683F99
:109D70002FD0B3F5680F2CD0194A934219D123681C
:109D800003BB18484FF0FF324FF0FF33214605F078
:109D9000BDFA08B923681BB90F4B13485B68984795
:109DA0002068142200210AF01DF84FF468636360F4
:109DB00008E0B3F5683F0DD83A2B03D040F6BA62FD
:109DC0009342DED1206809F04CFD636843F03A030A
:109DD000636010BD054AF3E748020020BF4D030051
:109DE0002C5F5CA9700E0020E54D03003A00003A9C
:109DF00008B5064906484023142209F0DFFCBDE8F7
:109E000008400449044806F0DFBB00BF7009002089
:109E1000700E0020644703007847030001491022B8
:109E20000A60704710ED00E072B6404080F3118880
:109E3000BFF36F8FBFF34F8F30BF62B6BFF36F8F2B
:109E4000704700BF72B6494081F31188BFF34F8F4E
:109E500020BF80F3118862B6704700BF40B200286F
:109E600007DB044A4109012300F01F00834042F848
:109E70002130704700E100E040B200280CDB4309CC
:109E8000064900F01F0020330122824041F82320C0
:109E9000BFF34F8FBFF36F8F704700BF00E100E04B
:109EA000054B420900F01F0053F82220012303FA5A
:109EB00000F01040704700BF00E100E040B2002811
:109EC000A8BF00F1604001F10101B8BF064B4FEAA5
:109ED0004111ACBF00F5614000F00F00C9B2B4BF42
:109EE000195480F80013704714ED00E030BFFFF7FD
:109EF000FDBF00BF0B4A08B50B4B22F07F029A60F2
:109F0000BFF34F8FBFF36F8FD3F8882022F4700216
:109F1000C3F8882005F028F906F0F0F800F056FAAA
:109F200005F074F90070020000ED00E0094A0A49EA
:109F3000936809689967094958674B6843F08053EB
:109F40004B60002383F31188BFF36F8F9368986F82
:109F5000704700BF101B00206C4A030000ED00E0BA
:109F600015498A684FF030001044EFF3098C80E8FF
:109F7000F01F202080F31288BFF36F8F0F4F4FF038
:109F800000664A698A603E604FF0700414192068C8
:109F90000B4C2060506F0023536780F3118804B589
:109FA000104600F0C1FABDE8044002F1300090E82C
:109FB000F01F8CF309887047101B002004ED00E0AF
:109FC0008C0E00201EF0040F0CBFEFF30880EFF39F
:109FD0000980816911F8021C0229FFD001B508F03F
:109FE00025FB01BD42F8203C009B42F81C3C0A497D
:109FF000019B42F8183C029B42F8143C21F00101FD
:10A000004FF0807342F8043C42F8081C0023203AC9
:10A0100002654367704700BFF1870200094A0346A3
:10A02000906870B113F1160F006E05D0A0F14002D8
:10A030009A4205D8834203D2814228BF002070474C
:10A0400000207047101B002008B514460A4A0B4B2D
:10A050009060026F1A600D4600F066FA204685F3A4
:10A060000988002163B681F31188BFF36F8F002246
:10A070000023FEF7BDFB00BF101B00208C0E00204C
:10A0800001B5EFF30580A0F110004FEAC0000449CC
:10A09000014409C99847BDE801400249084700004A
:10A0A0001042030005A10200114B124A2DE9F041B4
:10A0B000D518DFF84480013DB5FBF3F55D430F4B48
:10A0C00008EB0304013CB4FBF3F403FB04540E1B44
:10A0D00007460B49304609F077FE701942460021C9
:10A0E000083E09F07FFE3E6704F10800BDE8F081FC
:10A0F0000100000000000000040000000400000057
:10A1000050440300044B99685869884203D00349BE
:10A110004FF080520A607047101B002004ED00E0F1
:10A1200070B5264B15469A6A12F0100F9A6A14BF42
:10A130001124102412F0080F9A6A18BF12249207F3
:10A1400006460AD5586B9A6A140634D519B19A6A2C
:10A1500022F080029A62132401E06FF01500174B81
:10A160009A6A12F0010F9A6A18BF142412F0200F95
:10A170009A6A18BF1524D20602D49B6A9B070AD597
:10A180000E4B5B68190506D53146FFF747FF10B146
:10A1900080F309880224094B9A6A920642BF5A6AE0
:10A1A00022F400525A629A6A42F0FF029A62002335
:10A1B0002B70204670BD6FF01500CCE700ED00E07D
:10A1C000134B9A6A12F0007F9A6A14BF1E201D205A
:10A1D00012F0807F9A6A18BF1F2012F4002F9A6A2B
:10A1E00018BF212012F4802F9A6A18BF222012F47F
:10A1F000003F9A6A18BF232012F4803F9A6A6FEAE0
:10A2000002426FEA12429A6218BF2420704700BFD0
:10A2100000ED00E010B5194B0246986A9C6A10F4F4
:10A22000805F14BF1720162014F4006F9C6A18BFBB
:10A230001820A40509D5986B986A000404D51AB1B2
:10A240009A6A22F400429A6219200C4B9A6A12F41C
:10A25000806F9A6A18BF1A20D2050CD49B6A13F437
:10A26000005F18BF1C20054A936A43F47F43936242
:10A2700000230B7010BD1B20F5E700BF00ED00E0D0
:10A28000F0B5484B5B688BB00446C3F30803002568
:10A2900085F31188BFF36F8F02F07F40B0F17F4FDD
:10A2A00011D102F00C0008280DD010074CBF0C464D
:10A2B00001250022033B8DF80720032B05D8DFE89A
:10A2C00003F0246367602C46F3E700239DF8072022
:10A2D000CAB902AE04F1200720686168324603C2A1
:10A2E0000834BC421646F7D1099A002D54D0C2F367
:10A2F000080121B96FEA52226FEA4222099202A9AB
:10A30000184608F091F90BB0F0BD264BDA6A9107B8
:10A31000DBD4DA6A002AD8DBDA6A5200D5D55A696A
:10A32000A16942F480725A61BFF34F8FBFF36F8F00
:10A330005A6931F8021C22F480725A61BFF34F8FC0
:10A34000BFF36F8F4DF6027291420AD09A6AD2B271
:10A350004AB10DF1070201212046FFF7E1FE034655
:10A36000B4E72368B2E79A6A12F47F4F05D00DF183
:10A3700007010120FFF74EFFF1E79B6AB3F5803F2D
:10A38000A3D3FFF71DFFEAE70DF107020021E3E782
:10A390000DF107010020EDE722F4FF7222F0010227
:10A3A000ACE700BF00ED00E0024A536943F0100340
:10A3B0005361704700ED00E0EFF30880EFF309818F
:10A3C00001B57246FFF75CFF01BD00BF04480023E2
:10A3D0002021C2180133302B82F80013F9D17047C5
:10A3E00000E100E0002080F31488BFF36F8FFEF7D8
:10A3F0003FFB00200D490860BFF34F8F0C4880F3EE
:10A40000088800F03DF8202080F3118809484FF4B7
:10A410000461401880F30988EFF314800221084397
:10A4200080F31488BFF36F8FFFF764FD94ED00E0B5
:10A43000C033002000260020BFF34F8F0549064B94
:10A44000CA6802F4E0621343CB60BFF34F8F00BFD2
:10A45000FDE700BF00ED00E00400FA050749D1F870
:10A4600090200023C2F307221846934200DB704776
:10A47000C1F89830C1F8A0000133F6E700ED00E024
:10A4800008B572B6002383F31388FFF7E7FF144B78
:10A490004FF0FF32C3F88020C3F88420C3F888202F
:10A4A000C3F88C20C3F89020C3F89420C3F89820F8
:10A4B000C3F89C20C3F88021C3F88421C3F8882105
:10A4C000C3F88C21C3F89021C3F89421C3F89821D4
:10A4D000C3F89C2162B6BFF34F8FBFF36F8F08BDE7
:10A4E00000E100E0084B9B6883420BD1EFF305834A
:10A4F00043B1064B5A6842F080525A605A6A22F4BD
:10A5000000425A6205F088BD101B002000ED00E0FB
:10A51000024B034A0348012100F070B800000420F8
:10A520000000002088470300026E054B403A1A6085
:10A53000044A4021C3E901121846012100F068B81D
:10A54000900E002000000B15F0B5204E00258D4226
:10A5500039DA446874B353B104F1FF3C14EA0C0FC8
:10A560002FD11F2C2DD907681CEA070F29D1202CC9
:10A570000768D0F808C05FFA82FE1ED9B4F1004F18
:10A580001DD8013CB4FA84F4C4F11F046400BEF188
:10A59000070F4CEA040C14D827F01F04144344F0AE
:10A5A0001004C6F89820C6F89C404CF00104C6F888
:10A5B000A040013201350C30C9E70824E7E73E240A
:10A5C000E5E76FF015021046F0BD00BF00ED00E0BA
:10A5D000044B0522C3F89420BFF34F8FBFF36F8F56
:10A5E000704700BF00ED00E0BFF35F8F024B002219
:10A5F000C3F89420704700BF00ED00E010B5034C95
:10A6000001232278FFF7A0FF207010BD321D00202B
:10A6100008B5094A00231278FFF796FF10F1160FCC
:10A6200002D0064A072800DD08BDC2F89800C2F82B
:10A63000A0300130F6E700BF321D002000ED00E041
:10A6400014490868082810B521D8FFF7CDFF124C2F
:10A6500049680022904201F10C0105D10F4B18709E
:10A66000FFF7B6FF002010BDC4F8982051F80C3C4D
:10A6700023F01F03134343F01003C4F89C3051F838
:10A68000043C43F00103C4F8A0300132E2E74FF08C
:10A69000FF30E8E79447030000ED00E0321D0020A2
:10A6A00008B5024B1B689847002008BD9C0E00208F
:10A6B000034B044A1860937843F002039370704789
:10A6C0009C0E00202C01002008B5044807F0F7FA82
:10A6D000404080F311884FF0020002DF164E030065
:10A6E00008B50649064821F00701C1F1005202F5FC
:10A6F000802207F07FFC002008BD00BFD34200206D
:10A70000403800200E4A0123C2F840354FF0804205
:10A710004FF08051C2F87835D1F83001082808D1BF
:10A72000D1F83411052904D80648415C09B1C2F8B2
:10A7300038364FF080430122C3F88025002070474F
:10A7400000E00140434E030020B1034B800143F081
:10A7500001031847704700BF60440300020600F081
:10A760007F0312D5082B05D1010700F00F0306D592
:10A770000E48704710F0780F12D100F00F034C20F4
:10A7800000EB43100A4B18447047082B05D1020711
:10A7900000F00F0306D50748704710F0780FF6D089
:10A7A00000207047044800EB43107047EC0F002076
:10A7B000A00E00200C1100200C10002001490248BE
:10A7C00009F029B9C80E0020B8040020014601484C
:10A7D00009F0BCB83C03002002480022002304F02A
:10A7E00041BF00BF3C03002013B5124803F034FF03
:10A7F000114B98421AD1114802F0FCFD0024104878
:10A8000002F03EFE0F49104800944FF0FF334FF422
:10A81000806205F0A3F80D490B4809F009F80C48CF
:10A820000C4909F0DBF8204602B010BD6FF00400BF
:10A83000FAE700BF3DAA02000000AD0B5B4E03002B
:10A84000B4470300C0210020B80400204D4E03008F
:10A85000C80E002059AB020010B50E49BFF35B8F44
:10A86000002351E8002F012A03D141E800300028DD
:10A87000F7D1BFF35B8F0CD151F8044C143920464B
:10A8800007F0F0FC783004D12046BDE8104007F016
:10A89000C4BC10BDC00E002038B5002464F07F0099
:10A8A000C0B2FFF75BFF013407F0D4FE082CF5D1EE
:10A8B0000E4D0024E0B2FFF751FF036903B90561B3
:10A8C000013407F0C7FE082C05F14005F2D1084815
:10A8D00007F0C0FE074BD3F87C2212B9064AC3F832
:10A8E0007C22064807F0B6FE002038BD3015002057
:10A8F000EC0F0020A00E0020301100200C110020D1
:10A9000010B5054CFFF768FF20B14168204608F0FC
:10A9100063FFF7E710BD00BFBC02002007B50023AE
:10A920000E48002201A904F0F1FC90B1FFF7E8FF06
:10A930000A480022002301A904F0E8FC38B9019874
:10A94000042340600374FFF741FFFFF737FF002047
:10A9500001E00198406003B05DF804FBBC020020F8
:10A96000022810B511D8094B1C5CFFF7D7FF60B166
:10A97000002202740472FFF729FF054B93F824307C
:10A980001BB1BDE81040FFF719BF10BD584E0300C2
:10A99000A00E0020F8B5877806463846FFF7DEFEA1
:10A9A0003B06F578044612D5002D43D1FFF7B6FFDC
:10A9B000034600283ED00122A577027403220273C9
:10A9C0009C60FFF703FFBDE8F840FFF7F7BE4DB10D
:10A9D000012D2FD1FFF7A2FF034658B36577057409
:10A9E0000573EDE7FFF79AFF20B3B278124B12F030
:10A9F000800F02F0080111D041B1D3F8A836E3600E
:10AA000001230374022303738460DAE702F00F0268
:10AA1000142101FB0233D3F80836F0E711B1D3F863
:10AA2000A837ECE702F00F02142101FB0233D3F840
:10AA30000837E4E7F8BD00BF00700240F0B50646F5
:10AA400089B01422002103A809F0CCF93378013B26
:10AA5000052B21D8DFE803F07A0314146A160323C8
:10AA60008DF814300024FFF759FF0346A0B1047499
:10AA700000F10802DDE9050182E8030018461DE047
:10AA80000423EDE7B7783846FFF768FE837A04467B
:10AA900023B1013B022B43D909B0F0BD3B06F57849
:10AAA00013D5002DF8D1FFF739FF03460028F3D066
:10AAB0000122A5770274032202739C60FFF786FED1
:10AAC00009B0BDE8F040FFF779BE55B1012DE3D1E3
:10AAD000FFF724FF03460028DED065770574057371
:10AAE000EBE7FFF71BFF07460028D5D001230374CF
:10AAF00002230373846004F10C01B07808F0F9FDBF
:10AB0000134AE168B2F88C328B4206D95B1AA2F87C
:10AB10008C3203F0F5FF3846D0E7A2F88C52FAE702
:10AB2000304609B0BDE8F040FFF734BF01A803F09C
:10AB3000C5FF9DF80530052B04D19DF8043013F0B6
:10AB4000600FA9D0034B059301248CE702248AE708
:10AB5000A00E00200C1000202DE9F043A64CDFF8D9
:10AB60009C9285B08046FFF737FE074610B905B0C6
:10AB7000BDE8F08394F825303A7C3BB9002A00F018
:10AB8000868079689D4808F027FEECE7042A42D8C1
:10AB9000DFE812F07D0005000001160140013B7B5B
:10ABA000BD68032B37D8DFE803F0023D5A5F6E69BA
:10ABB000934B002232607260D3F880143170D3F866
:10ABC00084147170D3F88814D3F88C0441EA0021FE
:10ABD0007180D3F89014D3F8940441EA0021B18035
:10ABE000D3F89814D3F89C3441EA0323F380082364
:10ABF000EB6030687168834B03C311462B68687A39
:10AC0000984796F90030002B08DBF38833B1A4F89D
:10AC10008C3203F075FF79684846B4E70023A4F846
:10AC20008C32F8E76B7F002BF5D02B7F002BF2D016
:10AC300000266E774FF0FF3273482E774FF0FF33C8
:10AC400007F01BFD6B6901936B68CDE9023601A922
:10AC5000687A03F043FD6C4807F011FDDBE72B68D1
:10AC60000121687A9847D6E7AB7A6BB9EB7F5BB97D
:10AC700065484FF0FF324FF0FF3307F0FEFC03F062
:10AC80006FFF614807F0FBFC2B680221E9E73A7A85
:10AC9000042AC0D8DFE802F059032367730003F0E9
:10ACA000A5FC05460028B6D103F0D6FBBFF35B8FA9
:10ACB0005649012351E8002F002A03D141E8003012
:10ACC0000028F7D1BFF35B8FA5D141F8085C41F8AC
:10ACD000105CE0696361143907F047FA9BE70025CF
:10ACE00065F07F00C0B2FFF739FD037A13B1407AF7
:10ACF00004F0FEF80135082DF2D194F854311BB15F
:10AD000094F8550104F0F4F80025E8B2FFF726FDA9
:10AD1000037A13B1407A04F0EBF80135082DF4D131
:10AD200094F874321BB194F8750204F0E1F8002035
:10AD300003F03EFC012384F825302368002B3FF408
:10AD40006AAF00210220984765E7002584F8255066
:10AD500004F072F8FFF780FD2368002B3FF45BAF2F
:10AD600029460420EFE7002B3FF455AF03F048FCE1
:10AD70002368002B3FF44FAF00210520E3E7226852
:10AD8000002A3FF448AF002B3FF445AF00210620D6
:10AD9000904740E708F110054FF0FF334FF0FF32C6
:10ADA000284607F06AFCFFF777FD284607F067FCA6
:10ADB00058F8283C002B3FF42EAF00210120C2E7B9
:10ADC00094F874327BB1012584F8895284F8885252
:10ADD000FFF7A4FD38B10E4A057405738260FFF7D2
:10ADE000F5FCFFF7EBFC58F8283C002B3FF413AFC1
:10ADF00000210A20A7E700BFA00E0020BC0200200F
:10AE000000700240A40E0020D80E0020C00E0020CA
:10AE10000C11002008F0E0FA04F00EF803F012FB29
:10AE2000FFF76EFDFFF738FD08F0CFFA014803F099
:10AE300013FCF0E63DAA020038B5164D95F8244003
:10AE40002CBB05F1380008F00CFD204600F010FB8B
:10AE500022460121E8612720FFF730F808F0B5FA13
:10AE6000FFF71AFD044610B9012385F824300A4B78
:10AE70001B680BB1FFF7A2FC4FF08043D3F83834C6
:10AE8000DB0702D50020FFF76BFD204638BD00240C
:10AE9000FBE700BFA00E00203C030020074B93F807
:10AEA00024203AB193F82530002B14BF00206FF016
:10AEB000120070476FF01200704700BFA00E002014
:10AEC00038B5104B93F824300446C3B105782846B2
:10AED000FFF744FC10B96FF0150038BD45722379B7
:10AEE0008372638843602078618810F0080F02D174
:10AEF0004B1E0B42EFD108F0F7FB0020EDE76FF09F
:10AF00001200EAE7A00E002038B5124B93F8242077
:10AF10000546CAB193F82530B3B1FFF71FFC0446CC
:10AF2000A8B1837A012B12D007D9023B012B07D994
:10AF30006369A3610020E06038BD03F019FEF7E704
:10AF4000284603F08DFDF3E76FF01200F4E76FF091
:10AF50001500F1E7A00E002038B50E4B93F8242021
:10AF6000054682B193F825306BB1FFF7F7FB68B166
:10AF700015F008040AD1284603F094FD284604F091
:10AF80000BF8204638BD6FF01200FBE76FF015009C
:10AF9000F8E700BFA00E002038B50C4B93F8242032
:10AFA00005460C4662B193F825304BB1FFF7D6FB4E
:10AFB00048B144B1284603F05BFD2070002038BD45
:10AFC0006FF01200FBE76FF01500F8E7A00E00200D
:10AFD00070B5134E96F824300446C3B1FFF7BEFB9C
:10AFE0000546B8B1230705D4204603F05BFD204693
:10AFF00003F0D2FF2B7A83B901232B7296F8253008
:10B000000BB9002070BD204603F072FFF9E76FF026
:10B010001200F7E76FF01500F4E76FF07700F1E743
:10B02000A00E00202DE9F043DFF8E4801E4698F8DA
:10B03000243085B0074689461546002B61D098F824
:10B040002530002B5DD003065ED5FFF787FB044655
:10B05000002859D0037A002B56D04FF0FF334FF021
:10B06000FF3208F1380007F008FBA37F4BB108F16D
:10B07000380007F004FB6FF00A04204605B0BDE875
:10B08000F083A37AC5B13BB30123A3774FF0000847
:10B0900001A93846CDE90195CDF80C8003F01EFBDF
:10B0A0001C4B984229D084F81E801EBB6FF004040C
:10B0B000194807F0E4FAE0E7E27F02B1E577002BF8
:10B0C000E2D103F05DFDB842DED003F049FD124845
:10B0D00007F0D5FA0024D0E7B8F80A30AB42F0D92F
:10B0E0006268B5FBF2F302FB1353002BE9D1012395
:10B0F000E377E6E7C6F80080D8E706B135600024BC
:10B10000D6E76FF01204B8E76FF01504B5E700BF9B
:10B11000A00E00200000AD0BD80E00202DE9F0415C
:10B120001D46204B174693F824200E46002A33D0A4
:10B1300093F8253083B3030631D401B97FBBFFF701
:10B140000DFB044658B3037A4BB34FF0FF33164858
:10B150004FF0FF3207F091FAE3689F42B84628BFEC
:10B16000984646B93FB905B12B600F4807F087FAFA
:10B170000020BDE8F081A1694246304608F024FE77
:10B18000A3694344A361E368A3EB0803E360002DD4
:10B19000EBD0C5F80080E8E76FF01200E9E76FF048
:10B1A0001500E6E7A00E0020D80E002070B51E4D59
:10B1B00095F82420034682B395F825206AB31B0630
:10B1C0002ED4FFF7CBFA044650B3037A43B34FF0C3
:10B1D000FF334FF0FF3205F1380007F04EFAE36815
:10B1E000B3B9012663692677A361637F83B1FFF753
:10B1F00095FB30B905F1380007F041FA6FF00B000C
:10B2000070BD067484600673FFF7E0FAFFF7D6FAA4
:10B21000064807F034FA0020F2E76FF01200EFE77B
:10B220006FF01500ECE700BFA00E0020D80E002044
:10B2300010B5084B93F824300C462BB1FFF78EFA6B
:10B2400028B10460002010BD6FF01200FBE76FF022
:10B250001500F8E7A00E0020014B1860704700BFF2
:10B26000A00E002008B5074B93F8243023B1FFF758
:10B2700075FA20B1406808BD6FF01200FBE76FF06F
:10B280001500F8E7A00E0020084B70B5C31A0D4654
:10B2900007499B10044659430648402207F04DFADF
:10B2A0002B4601462046BDE8704018474417002051
:10B2B000B76DDBB64841030073B50C4C0C4A402314
:10B2C000041B00930D460B460A49A4106143064631
:10B2D000094807F05FFA011E05DA30462B4602B036
:10B2E000BDE87040184702B070BD00BF4417002091
:10B2F00001280300B76DDBB648410300002270B59A
:10B30000012104461046FEF7D9FD0F4801F04AFC22
:10B310000E4B984215D101F055FC26690C49304678
:10B3200006F010FF00280BDB01253564246908496D
:10B3300004F11C0006F006FF002801DBE564002094
:10B3400070BD6FF00400FBE789B302000000AD0B95
:10B35000B847030070B501460C2309484B43C41895
:10B36000D4E90E56403300221844A26307F0D2F904
:10B370002DB132462B460348BDE87040184770BDDA
:10B38000441700204841030010B1012804D0704741
:10B39000034B1B6C5B0701D1FFF7DCBF704700BF9D
:10B3A0004417002008B54FF02003EFF3118183F319
:10B3B0001288BFF36F8F124A136843F002001060C7
:10B3C000DA0708D481F31188BFF36F8F0120BDE83D
:10B3D000084007F058BF4FF08043D3F80C24D3F84F
:10B3E0000C34DB07EED5074807F094F981F3118898
:10B3F000BFF36F8F0020BDE80840FFF7ABBF00BF71
:10B4000094170020841700201FB500220123CDE9E6
:10B410000223094ACDF800D06B46CDF804D007F0DE
:10B42000E8F9002805DB4FF480420023684604F069
:10B4300071F905B05DF804FB1F28030010B54FF04B
:10B440002003EFF3118483F31288BFF36F8F074A51
:10B45000136823F00201DB07116002D4012007F01A
:10B460004EFF84F31188BFF36F8F10BD9417002037
:10B47000024AC3B21C2003FB00207047441700207F
:10B480002DE9F0413849BFF35B8F0746012251E8AF
:10B49000003F41E800200028F9D1BFF35B8F33B9AA
:10B4A000324933484B60CB608A6006F05EFE7B1EFB
:10B4B000012B2BD8012F07D14FF08043D3F81C3438
:10B4C00003F00303012B21D008F0ACF90546F8B9CD
:10B4D000284B1B78E3B14FF080430222C3F80823C6
:10B4E0000646DFF894804FF08044D4F81824D4F84E
:10B4F0001834D20316D503F00303012B01D0012F1A
:10B5000010D15DB386F31188BFF36F8FBDE8F08172
:10B510004FF02003EFF3118683F31288BFF36F8F90
:10B520000125DEE7ADB13046FEF78CFCD4F81835C6
:10B53000002BDAD1D4F80421002AD6D0C4F8043183
:10B54000D4F804310123C4F81835C8F88031A36059
:10B55000CBE70021212004F025FDE7E74FF08043F1
:10B560000222C3F80423D1E740170020301700203F
:10B57000601700206C1D002000E100E008B50748BE
:10B5800008F0F7F838B10648FFF792F80448FDF7DD
:10B5900011F9002008BD6FF01200FBE784410300A1
:10B5A000A5B502000A2838B5074D044604D1AB689A
:10B5B0000D215B6828469847AB6803485B68E1B299
:10B5C0009847204638BD00BF8441030030B540682D
:10B5D000057B01F01F04B2F5001F85B044EA451455
:10B5E00005D1204601F0CCFD002005B030BD00257E
:10B5F000B2F5800FCDE9025514D1B3F1007F0CBF35
:10B60000042305238DF808300023194602AA20469A
:10B6100001F0D2FB234B98423DD10121204601F09D
:10B6200061FDE1E7B3F1C06F27D0B3F1007F14BF34
:10B63000012302238DF80830836823FA01F111F009
:10B640000101E1D1B2F1A07FDED104F01F03620954
:10B6500003F5E07313D0012A20D1134A52F82330A6
:10B66000DB07D1D40DF107052946204601F0E4FCA3
:10B670000E4B984206D00395C6E70323DAE74FF056
:10B68000A042EBE7284601F027FD064B9842F2D096
:10B690006FF00B00A9E76FF01500A6E751F8233013
:10B6A000FFDE00BF0000AD0B000300500400AD0B37
:10B6B00010B501F001FD044668B901F0D5FC084B56
:10B6C00098420AD10748214601F0B0FC22460521E4
:10B6D0000620FEF7F3FB002010BD6FF00400FBE72F
:10B6E0000000AD0BE9B60200420970B5034602D076
:10B6F000012A17D070BD0D4E326951680029F9D06A
:10B7000003F01F0301250C689D400029F2D08A68D0
:10B710002A4002D04B68304698472CB12368214616
:10B720001C46F2E7024EE7E72346F8E770410300C4
:10B730005C4103002DE9FF4147683B7B01F01F0599
:10B7400045EA43150E4628460DF10701144601F05F
:10B7500073FC14F4403F80460DD1284601F036FDBD
:10B760003D4B984503D19DF8070001F0AFFC002048
:10B7700004B0BDE8F0810023194602AA2846CDE9AD
:10B78000023301F019FB344B984214D1804503D1A8
:10B790009DF8070001F09AFCA3034ED540F2063352
:10B7A0002340B3F5837F1AD00DD8062B18D005D8C7
:10B7B000B3B1022B33D06FF01500D9E7B3F5807F1A
:10B7C000F9D101230CE040F20222934229D0B3F5D3
:10B7D000407F28D0B3F5007FEDD1022300E007239E
:10B7E0008DF8083084F48033C3F30043E0068DF80D
:10B7F000093054BFC4F34013032321038DF80A30EA
:10B8000013D57A680123B340C2F80835002202A993
:10B81000284601F091FB104B9842A8D0CBE70423B7
:10B82000DEE70523DCE70323DAE7620341BF0123F8
:10B830007A68B340C2F80C35E8E7E3064FF000033E
:10B8400054BFC4F3401403241A4602A928468DF8B5
:10B85000084001F0B1FADEE70000AD0B08B543681F
:10B860001B68D3F80805D3F80C1503F0B5FB034BA0
:10B87000984214BF6FF00F00002008BD0000AD0B10
:10B8800037B50446002201210420FEF717FB636848
:10B890009D6901AA0021284607F072F8002814DBF0
:10B8A000019B2A681979186800F0D0F900280CDB90
:10B8B00060682369064A00F1080101F077FF054B33
:10B8C000984214BF6FF00F00002003B030BD00BFDE
:10B8D000D9B802000000AD0B0378012B08D0022B71
:10B8E00008D04BB9054B0B6201F1100003F0EEBE1E
:10B8F000034BF8E7034BF6E7034BF4E70000AD0B0F
:10B900000100AE0B0200AE0B0100AD0B2DE9F04FB4
:10B910008BB005460C4690460193476806694FF088
:10B92000FF324FF0FF33304603F0F4FE06F1100A09
:10B9300000220023504603F0EDFE384601F07AFF66
:10B94000DFF8C0B04FF00009C14501D300242EE05C
:10B95000237A039313F008014DD112220DF1160042
:10B96000029108F03FFA039B60680199069003F08A
:10B97000010220688DF8151013F0020F02998DF85E
:10B98000142008901DD108F1FF334B4502D9237DC7
:10B990005B0718D57ABB202205A9384601F076FF4F
:10B9A000584512D0184B984228D06FF004043846FE
:10B9B00001F050FF304603F089FE20460BB0BDE891
:10B9C000F08F0A46E8E74022E6E74FF48042002382
:10B9D000504603F09FFE30B1384601F03BFF284649
:10B9E000FFF73CFFE1E7336A5B4504F10C04DCD16F
:10B9F00009F10109A8E76FF08504D8E76FF00F049B
:10BA0000D5E700BF0000AD0B0B00AD0B38B54468A7
:10BA10000569E3699847206A06F0A2FF00280DDB5C
:10BA20002B46084A04F10801204602F04BF8064B69
:10BA3000984204D1204602F089F8002038BD6FF00A
:10BA40000400FBE789BA02000000AD0B70B5446842
:10BA50002368D3F80855D3F80C65204602F086F821
:10BA60003146284603F0B8FA0546206A06F078FF0A
:10BA7000204602F06BF8034B9D4214BF6FF00F009D
:10BA8000002070BD0000AD0B0378012B08D0022B05
:10BA900008D04BB9054B0B6201F1100003F016BE44
:10BAA000034BF8E7034BF6E7034BF4E70000AD0B5D
:10BAB0000100AE0B0200AE0B0100AD0B2DE9F04F03
:10BAC0001D468BB0436806690093914614221B8B78
:10BAD000D6F824A0029380460C460DEB020000210C
:10BAE00008F080F98DF815504FF0FF324FF0FF331A
:10BAF000304603F00FFE06F11003019300220023ED
:10BB000006F1100003F006FE0027DFF818B13D46ED
:10BB10004F4501D300245AE0207A02077BD4013735
:10BB20004F4521680AD2830708D4237D80EA0302A7
:10BB300002F0010203F004031A4307D025B901F013
:10BB40006043B3F1005F17D0002300E00123626877
:10BB5000DDF808E005EB020CF4455FD8C00705D41A
:10BB60000AEB0500039308F02FF9039B62682A444F
:10BB700095B2002B39D1D5B92368089363680025A5
:10BB8000227A069302F0010382F00202C2F340021D
:10BB900000988DF81430520105A902F005F85845B7
:10BBA00009D0214B984210D16FF00F040FE0CDF86F
:10BBB00020A02B46E4E74FF480420198002303F0D5
:10BBC000A9FD58B14046FFF741FF6FF0040430462D
:10BBD00003F07CFD20460BB0BDE8F08F336A5B4577
:10BBE000F3D1237ADB0702D400250C3490E7089BBD
:10BBF0009A45F9D1234608E0A91AD86803938DB273
:10BC00001AFA81F108F0E0F8039B5A689542A3F113
:10BC10000C03F1D2E8E76FF08504D8E76FF01B045E
:10BC2000D5E700BF0000AD0B0B00AD0B036803F0C0
:10BC30001F025B09026004D0012B034818BF0020DB
:10BC400070474FF0A0407047000300502DE9F04FBF
:10BC5000DFF8849185B01546824600EB81014FF0F4
:10BC60000108514503D1002005B0BDE8F08FDAF896
:10BC7000003003F07F04C3F343277F2C4FEA1343C4
:10BC800008BF4FF0FF34222B00F2A380DFE803F05F
:10BC900012191F22252B22A1A1A1A13C68A1A1A1BB
:10BCA000A1A1A1A1A1A16B818487A1A1A18A929543
:10BCB000989B9E00C5F80C45601C5ED10AF1040AF1
:10BCC000CFE7C5F81445621CF8D000265FE0C5F840
:10BCD0000845F1E7C5F81045F5E7631CC5F80845C8
:10BCE000ECD0002604E0661CC5F80C45E6D0012621
:10BCF00003A80394FFF79AFF039B08FA03F3C0F825
:10BD00000C354FF0010B08E0C5F80845002FDAD1DB
:10BD1000631CD3D00026B3460627DAF8003001931F
:10BD200003F40052002A03A81CBF01264FF0000BA9
:10BD30000394FFF77BFF039A019B00EB8200C3F3A0
:10BD4000C114D0F800273B0243EA840343EA0B0303
:10BD500002EA0902134343EA4603C0F80037ADE79D
:10BD6000C5F80C45D2E7C5F86045601CDAF800302C
:10BD7000A4D0C3F38033002BB9D003A80394FFF7FA
:10BD800055FF039B08FA03F3C0F808350126B346B4
:10BD9000C3E7C5F86445E8E7C5F86845E5E7C5F8D1
:10BDA0006C45E2E7C5F82445621C87D001264FF0B8
:10BDB000000BB2E7C5F828457EE7C5F83045F3E744
:10BDC000C5F83445F0E7C5F83845EDE7C5F83C451A
:10BDD00072E76FF0850047E7F0F8FCFF38B544687C
:10BDE000606AB8B194F82810012206F083FE00289A
:10BDF00002DB246A0CB9002038BD0848084A4FF419
:10BE0000004500210023E4FB0501FCF76DF804F078
:10BE1000C9F8F0E76FF08500EEE700BF3F420F0082
:10BE200040420F0070B505692A6A0B01D6680C46BE
:10BE300003F0F003F0221021B047002809DB0A2CA0
:10BE400096BF054B41F6082333F81430AB8400202D
:10BE500070BD6FF00400FBE7CA4B030073B5436885
:10BE60001B680446984700280BDB25692B6ADE68AF
:10BE700080231A4612212046B047002803DA6FF0CB
:10BE8000040002B070BD48F6B80007F06DFC2B6AE4
:10BE90000DF107029B680F21204698470028EEDB32
:10BEA0009DF807306A2BEAD10021204606F085FE76
:10BEB0000028E4DB1F4BEB6000212046FFF7B2FFB8
:10BEC0000028DCDB0421204606F087FE0028D6DBB4
:10BED000194BEB610021204606F093FE0028CEDBD3
:10BEE0002B6A0722DE680A2100232046B04700287B
:10BEF000C5DB2B6A4622DE68122144232046B04768
:10BF00000028BCDB2B6ADE6810231A461521204668
:10BF1000B0470028B3DB2B6ADD6880231A46162160
:10BF20002046A8470028AADB204600F017F800EAC0
:10BF3000E070A6E723DB793D00008C4008B502697C
:10BF4000436805491162586807F013FC00280CBFCC
:10BF50006FF01200002008BD64490300F8B5466880
:10BF600005690446F06807F004FC00283ED0738A97
:10BF7000F068317C43F48032D0F810C0D0F808E08B
:10BF800013F0010F4FF00107DCF8003007FA01F75A
:10BF900014BF3B43BB43CCF80030DEF80030984779
:10BFA000337C144A012707FA03F3C5E90C23F06830
:10BFB0008368DB6905F12C0113B96FF00400F8BD4B
:10BFC0003A4698470028F8DB2B6ADE6803231A46B6
:10BFD0000D212046B0470028EFDB074BAC626B64B5
:10BFE0006068394606F038FF0020E8E76FF012007D
:10BFF000E5E700BF932E0300AF2E0300014B0122A3
:10C000001A60704700C000400C2903690BD15B6ABD
:10C01000064907484B4393FBF0F100FB11331160D5
:10C020005360002070476FF08500704790D0030088
:10C0300040420F00044B00690022C3F80021D3F8EE
:10C04000003103F043BB00BF00C000407FB505696D
:10C05000AB6A63B33A2901D00C292BD105F1100644
:10C060004FF0FF324FF0FF33304603F045FA134BE9
:10C070000193A86A0323002469460394029306F0FF
:10C0800074F84FF0FF324FF0FF33284603F042FBC5
:10C09000A86A06F0C2F80A4BD3F808256A620122A2
:10C0A0005A60304603F0A2FA204604B070BD6FF02B
:10C0B0000A00FAE76FF08500F7E700BFFDBF020056
:10C0C00000C0004010B504690020FFF7D1F9A0625C
:10C0D0004FF0FF320021204607F043FC04F110002E
:10C0E00007F0BFFB002201210C20FDF7E7FE0C202A
:10C0F000FDF7B4FE024B0122C3F80423002010BD5B
:10C1000000C00040F0B54B79012B26D0032B21D184
:10C1100010258B79032B1DD1CE790EB1012E19D1AB
:10C120000A7912B1022A15D10E220B684468B3F5C0
:10C13000164F276867D02DD8B3F5165F66D016D88E
:10C14000B3F5966F64D00AD8B3F5967F63D0B3F594
:10C15000167F63D06FF0850054E00025D9E7B3F572
:10C16000166F5ED0B3F5965FF4D1384B3CE0B3F573
:10C17000E14F59D007D8B3F5615F57D0B3F5964F6B
:10C18000E8D1334B30E047F61224A342E2D14FF41A
:10C19000000329E0B3F5613F4AD013D8B3F5963FC9
:10C1A00049D009D84DF6C024A34246D0B3F5614F1B
:10C1B000D0D14FF46B0317E0B3F5E13FCAD14FF094
:10C1C000EB7311E0B3F5612F3AD008D8214CA342AC
:10C1D00039D0B3F5E12FBDD14FF0E86304E01E4C38
:10C1E000A342B7D14FF080530469C7F824354368A0
:10C1F00035431B682A43C3F86C2503C9231D83E814
:10C2000003000020F0BD4FF41D03EDE7134BEBE7F7
:10C210004FF49E23E8E74FF4A033E5E74FF41C33D7
:10C22000E2E74FF41D23DFE70D4BDDE70D4BDBE7C6
:10C230004FF06C73D8E70C4BD6E74FF46503D3E7A8
:10C240004FF07063D0E74FF08063CDE700B013008C
:10C2500000A04E0090D0030040420F000050270085
:10C2600000C0750000F03A0000903A012DE9F74354
:10C270008046002201210220FDF720FE0220FDF76A
:10C28000EDFDD8F80470D8F810603C680021C4F8BF
:10C290000015C6F80080D7F80C9001AA484606F0B1
:10C2A0006FFB051E4CDB019BD9F80020197918683B
:10C2B000FFF7CCFC051E43DB311D4046FFF722FF94
:10C2C000054600283CD17B68990712D506F11C0071
:10C2D00001F030F91E4B984236D1307F04F10C0248
:10C2E00004F5907106F0C5FF337F0120984000F0FF
:10C2F000F1FB0823C4F800353B7A53B9C4F8103178
:10C30000D4F81031B369C4F834350123C4F8383592
:10C3100023607B689A075CBF4FF48073C4F80433D2
:10C320007B68DB0644BF4FF48003C4F804337369B1
:10C33000C4F844350023C4F848350123A360E36002
:10C34000284603B0BDE8F0836FF00405F8E700BFAE
:10C350000000AD0BF8B5044607690D4607F062FA18
:10C36000B0B9214B1B789BB16426606806F0B7FE1C
:10C3700000BB012006F07BFF013EF6D10021212009
:10C3800003F010FEF0E781F31188BFF36F8FF5E73C
:10C390004FF02003EFF3118183F31288BFF36F8F07
:10C3A00060680E4606F09BFE90B981F31188BFF3DA
:10C3B0006F8FEDE74FF02003EFF3118183F31288C5
:10C3C000BFF36F8F60680E4606F089FE0028DAD052
:10C3D0007B691D7079690122204606F0C0FD86F355
:10C3E0001188BFF36F8FF8BD6C1D002070B501235D
:10C3F00083400E4ABFF35B8FDC4352E8001F01EA23
:10C40000040542E80056002EF7D1BFF35B8F4FF4CE
:10C41000803282400648C0F80823BFF35F8FBFF325
:10C420006F8F0B4214BF0120002070BD4818002000
:10C430000010014070B40E49D1E90034D01AC3187D
:10C4400044F1000422F07F46C1E90034A6F5001350
:10C45000B3F5400F09D2074B1B681A0A1B069C193B
:10C46000054B42F10005C3E9004570BC03F01CBF59
:10C47000680500204C1800207005002011B3BFF3A0
:10C480005B8F0123104A834052E800CF4CEA030C33
:10C4900042E800C10029F7D1BFF35B8F0B4A4FF48C
:10C4A00080338340C2F80433094BBFF35B8F1B68B2
:10C4B000BFF35B8FC340DB0742BF064B4FF4003234
:10C4C000C3F80021704700BF481800200010014049
:10C4D0004418002000E100E00D4B1868010A000636
:10C4E000BFF35F8F0B4BD3F80435181841F10001EF
:10C4F000B3F5801F0AD2084BD3E90023904271EBB9
:10C50000030303D210F1807041F10001704700BFB6
:10C510004C18002000100140700500202DE9F04F5C
:10C5200085B016461F469DF840A00446FFF75EFF03
:10C530000190FFF7D1FFB04271EB070354D23E4B9D
:10C54000301A67EB0101984271F100014FD23B4B69
:10C5500003EB0413D3E902239F4208BF96425ED047
:10C5600037494FF4803804F1500508FA04F8AD005B
:10C57000C1F848832046ADB206F05DFE26F07F4B41
:10C5800005F1804504F5A87305F58835DC464FF0C4
:10C5900003090293029A2CF07F4341F82230C1F83C
:10C5A0004483D1F80435274A6FF00200C01A604472
:10C5B00020F07F40904232D9286868B1D1F8043524
:10C5C0000393A3EB0B0020F07F40B0F5000F26D9BA
:10C5D000204606F030FE039BBAF1000F07D109EBAD
:10C5E000030C09F10109D5E7BAF1000F09D06FF08A
:10C5F000150520460199FFF741FF284605B0BDE823
:10C60000F08F0123104ABFF35B8FA34052E8000F65
:10C61000184342E800010029F8D1BFF35B8F0749B6
:10C620000E98230101EB0412C8500F9B5360C2E91E
:10C6300002670025DDE700BF0100800058050020EB
:10C6400000100140FDFF7F00441800207FB51C4C06
:10C650001C4BC4F80833C4F848331B4B00254FF07B
:10C66000FF304FF0FF31C4F80855C3E902014FF421
:10C670008033C4F80433154B02264FF400320121F5
:10C68000C4F804631120C3F880212A46FDF716FC84
:10C690001120FDF7E3FB0E4A0123A3602360136022
:10C6A0000C4B0D4A0093CDE9015500232846FFF7B6
:10C6B00035FF3046FEF7E4FE284604B070BD00BFEB
:10C6C0000010014003000F005805002000E100E0C9
:10C6D0004818002035C40200FFFF7F002DE9F74312
:10C6E0002F4CD4F8043399070BD5D4F8043143B157
:10C6F0002C4A0023C4F80431D4F804311368013300
:10C700001360D4F80433DA032AD5BFF35B8F264BCA
:10C7100053E8002F22F0010143E800100028F7D170
:10C72000BFF35B8FD30702D4D4F84031C3B10025E7
:10C73000C4F84051D4F84031FFF7CEFE4FF020034B
:10C74000EFF3118283F31288BFF36F8F174BD3E996
:10C750000267B042B94106D282F31188BFF36F8FEE
:10C7600003B0BDE8F0834FF0FF384FF0FF39C3E965
:10C770000289D3E900101D604FF48033C4F84833B8
:10C78000C4F84051D4F8403182F31188BFF36F8F61
:10C790000029E5D0009032463B4628468847DFE72F
:10C7A000001001404C1800204418002058050020BB
:10C7B0001FB5431C23D0012823DD134A134B90429D
:10C7C000D4BF04461C46FFF787FE114B0F49D3E93F
:10C7D0000023801AB0F5000F28BF002404448C42C7
:10C7E00028BF0C46A2180B4900914FF00000CDE97C
:10C7F000010043F10003FFF791FE04B010BD034CAC
:10C80000E1E70124DFE700BFFEFF7F00FFFF7F00BD
:10C810006805002035C4020008B5FFF75DFE024B35
:10C820001B68C01A08BD00BF6805002010B5084C81
:10C83000012363601120FDF71FFB064BC4F808338A
:10C84000C4F84833044B4FF40032C3F8802110BDC4
:10C850000010014003000F0000E100E04FF08053A2
:10C86000D3F83021082A06D1D3F83431052B02D869
:10C87000024AD05C70470020704700BF554F03004C
:10C88000024AD2F80034002BFBD0704700E0014090
:10C8900010B54FF08053D3F83021082A4ED14FF015
:10C8A00080420021C2F80C11C2F81011C2F83815EC
:10C8B00002F54042D3F80414C2F82015D3F8081446
:10C8C000C2F82415D3F80C14C2F82815D3F81014A4
:10C8D000C2F82C15D3F81414C2F83015D3F8181474
:10C8E000C2F83415D3F81C14C2F84015D3F820143C
:10C8F000C2F84415D3F82414C2F84815D3F8281404
:10C90000C2F84C15D3F82C14C2F85015D3F83014D3
:10C91000C2F85415D3F83414C2F86015D3F838149B
:10C92000C2F86415D3F83C14C2F86815D3F8401463
:10C93000C2F86C15D3F84434C2F87035FFF78EFF97
:10C9400018B13A4B3A4AC3F88C26FFF787FF18B163
:10C95000384BFB22C3F81825FFF780FF70B14FF06A
:10C9600080414FF08053D1F8E42ED3F8583222F0B2
:10C970000F0203F00F031343C1F8E43EFFF76EFF0D
:10C9800020B12D4B4FF40072C3F840264FF0805376
:10C99000D3F83031082B1AD14FF08043D3F800245C
:10C9A000D20744BF6FF00102C3F800244FF0805358
:10C9B000D3F83431052B02D8204AD35C3BB14FF079
:10C9C0001023D3F808224FF08043C3F858254FF0C6
:10C9D0001023D3F80022002A03DBD3F80432002B03
:10C9E00022DA174901234FF01020C1F80435122430
:10C9F000FFF746FFC0F80042FFF742FFC0F80442CD
:10CA0000FFF73EFF0023C1F80435FFF739FFBFF3FE
:10CA10004F8F0C490C4BCA6802F4E0621343CB60A1
:10CA2000BFF34F8F00BFFDE710BD00BF00500040B7
:10CA30004881030000F00040009002404F4F030087
:10CA400000E0014000ED00E00400FA0530B50468A4
:10CA5000CCB1BFF35B8FB4FA84F3C3F11F03DBB235
:10CA600001229A4024EA020250E8005FA54204D164
:10CA700040E8002CBCF1000FF6D1BFF35B8FE6D18C
:10CA800002480B7030BD0248FCE700BF0000AD0B50
:10CA90000200AD0B10B50368CB40DB0714D40123B3
:10CAA0008B400268BFF35B8F43EA020150E8004FFE
:10CAB000944204D140E8001CBCF1000FF6D1BFF352
:10CAC0005B8FEED1014810BD0148FCE70000AD0BC3
:10CAD0000400AD0B014BC3F80405704700F00140A2
