:020000022000DC
:10700000C0330020359D0200571F0300219D020060
:10701000219D0200219D0200219D02000000000030
:10702000000000000000000000000000F59E0200CB
:10703000219D020000000000919E0200219D02009F
:10704000D1A00200D1A00200D1A00200D1A0020074
:10705000D1A00200D1A00200D1A00200D1A0020064
:10706000D1A00200D1A00200D1A00200D1A0020054
:10707000D1A00200D1A00200D1A00200D1A0020044
:10708000D1A00200D1A00200D1A00200D1A0020034
:10709000D1A00200D1A00200D1A00200D1A0020024
:1070A000D1A00200D1A00200D1A00200D1A0020014
:1070B000D1A00200D1A00200D1A00200D1A0020004
:1070C000D1A00200D1A00200D1A00200D1A00200F4
:1070D000D1A00200D1A00200D1A00200D1A00200E4
:1070E000D1A00200D1A00200D1A00200D1A00200D4
:1070F000D1A00200D1A00200D1A00200D1A00200C4
:1071000081F0004102E000BF83F0004330B54FEA58
:1071100041044FEA430594EA050F08BF90EA020FC5
:107120001FBF54EA000C55EA020C7FEA645C7FEA58
:10713000655C00F0E2804FEA5454D4EB5555B8BF7B
:107140006D420CDD2C4480EA020281EA030382EAEC
:10715000000083EA010180EA020281EA0303362D7E
:1071600088BF30BD11F0004F4FEA01314FF4801C51
:107170004CEA113102D0404261EB410113F0004F63
:107180004FEA03334CEA133302D0524263EB43031A
:1071900094EA050F00F0A780A4F10104D5F1200EB8
:1071A0000DDB02FA0EFC22FA05F2801841F1000113
:1071B00003FA0EF2801843FA05F359410EE0A5F1E7
:1071C00020050EF1200E012A03FA0EFC28BF4CF018
:1071D000020C43FA05F3C01851EBE37101F00045CE
:1071E00007D54FF0000EDCF1000C7EEB00006EEBDB
:1071F0000101B1F5801F1BD3B1F5001F0CD3490865
:107200005FEA30004FEA3C0C04F101044FEA4452BB
:1072100012F5800F80F09A80BCF1004F08BF5FEA42
:10722000500C50F1000041EB045141EA050130BD22
:107230005FEA4C0C404141EB0101013C28BFB1F534
:10724000801FE9D291F0000F04BF01460020B1FA7F
:1072500081F308BF2033A3F10B03B3F120020CDA52
:107260000C3208DD02F1140CC2F10C0201FA0CF030
:1072700021FA02F10CE002F11402D8BFC2F1200C95
:1072800001FA02F120FA0CFCDCBF41EA0C0190404B
:10729000E41AA2BF01EB0451294330BD6FEA040494
:1072A0001F3C1CDA0C340EDC04F11404C4F120027F
:1072B00020FA04F001FA02F340EA030021FA04F391
:1072C00045EA030130BDC4F10C04C4F1200220FAE8
:1072D00002F001FA04F340EA0300294630BD21FA26
:1072E00004F0294630BD94F0000F83F4801306BFEC
:1072F00081F480110134013D4EE77FEA645C18BFE0
:107300007FEA655C29D094EA050F08BF90EA020F76
:1073100005D054EA000C04BF1946104630BD91EA6E
:10732000030F1EBF0021002030BD5FEA545C05D171
:107330004000494128BF41F0004130BD14F58004B0
:107340003CBF01F5801130BD01F0004545F0FE4124
:1073500041F470014FF0000030BD7FEA645C1ABF59
:10736000194610467FEA655C1CBF0B46024650EA90
:10737000013406BF52EA033591EA030F41F40021BC
:1073800030BD00BF90F0000F04BF0021704730B542
:107390004FF4806404F132044FF000054FF0000117
:1073A00050E700BF90F0000F04BF0021704730B5D8
:1073B0004FF4806404F1320410F0004548BF4042AD
:1073C0004FF000013EE700BF42004FEAE2014FEA02
:1073D00031014FEA02701FBF12F07F4393F07F4FDD
:1073E00081F06051704732F07F4208BF704793F0E0
:1073F0007F4F04BF41F40021704730B54FF46074F3
:1074000001F0004521F000411CE700BF50EA0102F5
:1074100008BF704730B54FF000050AE050EA01029E
:1074200008BF704730B511F0004502D5404261EB0E
:1074300041014FF4806404F132045FEA915C3FF44F
:10744000D8AE4FF003025FEADC0C18BF03325FEAEC
:10745000DC0C18BF033202EBDC02C2F1200300FA9D
:1074600003FC20FA02F001FA03FE40EA0E0021FAC2
:1074700002F11444BDE600BF70B54FF0FF0C4CF4B0
:10748000E06C1CEA11541DBF1CEA135594EA0C0F62
:1074900095EA0C0F00F0DEF82C4481EA030621EA9D
:1074A0004C5123EA4C5350EA013518BF52EA0335D8
:1074B00041F4801143F4801338D0A0FB02CE4FF08A
:1074C0000005E1FB02E506F00042E0FB03E54FF0BA
:1074D0000006E1FB03569CF0000F18BF4EF0010EB2
:1074E000A4F1FF04B6F5007F64F5407404D25FEAAE
:1074F0004E0E6D4146EB060642EAC62141EA555161
:107500004FEAC52040EA5E504FEACE2EB4F1FD0CA2
:1075100088BFBCF5E06F1ED8BEF1004F08BF5FEA20
:10752000500E50F1000041EB045170BD06F00046D2
:1075300046EA010140EA020081EA0301B4EB5C047F
:10754000C2BFD4EB0C0541EA045170BD41F4801177
:107550004FF0000E013C00F3AB8014F1360FDEBF9C
:10756000002001F0004170BDC4F10004203C35DA78
:107570000C341BDC04F11404C4F1200500FA05F3FB
:1075800020FA04F001FA05F240EA020001F000429C
:1075900021F0004110EBD37021FA04F642EB060112
:1075A0005EEA430E08BF20EAD37070BDC4F10C043C
:1075B000C4F1200500FA04F320FA05F001FA04F200
:1075C00040EA020001F0004110EBD37041F10001EC
:1075D0005EEA430E08BF20EAD37070BDC4F12005F7
:1075E00000FA05F24EEA020E20FA04F301FA05F25F
:1075F00043EA020321FA04F001F0004121FA04F207
:1076000020EA020000EBD3705EEA430E08BF20EAD6
:10761000D37070BD94F0000F0FD101F00046400010
:1076200041EB010111F4801F08BF013CF7D041EA92
:10763000060195F0000F18BF704703F00046520096
:1076400043EB030313F4801F08BF013DF7D043EA67
:107650000603704794EA0C0F0CEA135518BF95EA1D
:107660000C0F0CD050EA410618BF52EA4306D1D1A4
:1076700081EA030101F000414FF0000070BD50EAC3
:10768000410606BF1046194652EA430619D094EA4D
:107690000C0F02D150EA013613D195EA0C0F05D137
:1076A00052EA03361CBF104619460AD181EA03018B
:1076B00001F0004141F0FE4141F470014FF0000043
:1076C00070BD41F0FE4141F4780170BD70B54FF0DE
:1076D000FF0C4CF4E06C1CEA11541DBF1CEA13555E
:1076E00094EA0C0F95EA0C0F00F0A7F8A4EB050440
:1076F00081EA030E52EA03354FEA013100F0888037
:107700004FEA03334FF0805545EA131343EA1263FF
:107710004FEA022245EA111545EA10654FEA0026B4
:107720000EF000419D4208BF964244F1FD0404F56D
:10773000407402D25B084FEA3202B61A65EB0305C9
:107740005B084FEA32024FF480104FF4002CB6EB86
:10775000020E75EB030E22BFB61A754640EA0C0006
:107760005B084FEA3202B6EB020E75EB030E22BF46
:10777000B61A754640EA5C005B084FEA3202B6EB87
:10778000020E75EB030E22BFB61A754640EA9C0046
:107790005B084FEA3202B6EB020E75EB030E22BF16
:1077A000B61A754640EADC0055EA060E18D04FEAD4
:1077B000051545EA16754FEA06164FEAC30343EA74
:1077C00052734FEAC2025FEA1C1CC0D111F4801F41
:1077D0000BD141EA00014FF000004FF0004CB6E73A
:1077E00011F4801F04BF01430020B4F1FD0C88BFD9
:1077F000BCF5E06F3FF6AFAEB5EB030C04BFB6EBE4
:10780000020C5FEA500C50F1000041EB045170BDD6
:107810000EF0004E4EEA113114EB5C04C2BFD4EB03
:107820000C0541EA045170BD41F480114FF0000E87
:10783000013C90E645EA060E8DE60CEA135594EA03
:107840000C0F08BF95EA0C0F3FF43BAF94EA0C0F06
:107850000AD150EA01347FF434AF95EA0C0F7FF47B
:1078600025AF104619462CE795EA0C0F06D152EACF
:1078700003353FF4FDAE1046194622E750EA4106B3
:1078800018BF52EA43067FF4C5AE50EA41047FF4C4
:107890000DAF52EA43057FF4EBAE12E74FEA410227
:1078A00012F5001215D211D56FF47873B3EB625252
:1078B00012D94FEAC12343F0004343EA505311F079
:1078C000004F23FA02F018BF404270474FF000000B
:1078D000704750EA013005D111F0004008BF6FF049
:1078E000004070474FF00000704700BF4FEA410270
:1078F000B2F1E04324BFB3F5001CDCF1FE5C0DD90E
:1079000001F0004C4FEAC0024CEA5070B2F1004F57
:1079100040EB830008BF20F00100704711F0804F5A
:1079200021D113F13872BCBF01F00040704741F41F
:1079300080114FEA5252C2F11802C2F1200C10FA23
:107940000CF320FA02F018BF40F001004FEAC12307
:107950004FEAD32303FA0CFC40EA0C0023FA02F3AB
:107960004FEA4303CCE77FEA625307D150EA013381
:107970001EBF4FF0FE4040F44000704701F0004051
:1079800040F0FE4040F40000704700BF7BB972B980
:107990000029BEBF00204FF0004106E008BF0028CC
:1079A0001CBF6FF000414FF0FF3000F057B8ADF151
:1079B000080C6DE904CE002909DB002B1ADB00F06E
:1079C0004FF8DDF804E0DDE9022304B070474042DF
:1079D00061EB4101002B1BDB00F042F8DDF804E015
:1079E000DDE9022304B0404261EB4101524263EB06
:1079F00043037047524263EB430300F031F8DDF874
:107A000004E0DDE9022304B0404261EB410170472C
:107A1000524263EB430300F023F8DDF804E0DDE9B4
:107A2000022304B0524263EB4303704753B94AB98F
:107A3000002908BF00281CBF4FF0FF314FF0FF3076
:107A400000F00CB8ADF1080C6DE904CE00F008F8B8
:107A5000DDF804E0DDE9022304B07047704700BFA1
:107A60002DE9F04786468C460846089E1546744622
:107A70001946002B40F0C2808542B2FA82F245D905
:107A80004AB1C2F1200300FA02FC2EFA03F395403A
:107A900043EA0C0C94404FEA154EA8B2BCFBFEF82A
:107AA000230C0EFB18CC08FB00F943EA0C43994564
:107AB00028D9EB1808F1FF3704D2994502D9A8F16B
:107AC00002072B44A3EB0903A4B2B3FBFEFC0EFB9D
:107AD0001C330CFB00F044EA0344A04214D92C19D7
:107AE0000CF1FF3304D2A04202D9ACF102032C44C2
:107AF000241A43EA07401EB1D44000233460736067
:107B0000BDE8F0874746DDE76346F1E792BB431BDC
:107B100001214FEA154EAFB2B3FBFEFC200C0EFB69
:107B20001C330CFB07F840EA0343984562D9EB1875
:107B30000CF1FF3004D2984502D9ACF102002B447D
:107B4000A3EB0803A4B2B3FBFEFC0EFB1C330CFB3F
:107B500007F744EA0344A7424ED92C190CF1FF332E
:107B600004D2A74202D9ACF102032C44E41B43EA3D
:107B70000040C0E7C2F1200320FA03F19540904095
:107B80002EFA03F303434FEA154EAFB2B1FBFEFCEE
:107B90000EFB1C10190C0CFB07F841EA004188454C
:107BA00004FA02F422D969180CF1FF3004D2884596
:107BB00002D9ACF102002944A1EB08019BB2B1FB50
:107BC000FEFC0EFB1C110CFB07F743EA01439F422E
:107BD0000ED9EB180CF1FF3104D29F4202D9ACF15F
:107BE00002012B44DB1B41EA004192E76046E3E7D8
:107BF0006146F7E76046A3E76346B7E7834206D9E5
:107C000016B9002108467BE7C6E900E0F9E7B3FAB8
:107C100083F78FB9834201D3724508D8BEEB0204C3
:107C200060EB030301209C461EB9002168E738463B
:107C3000FAE7C6E9004CF8E7C7F1200CBB4022FA8E
:107C40000CF41C432EFA0CF120FA0CF3B84001435B
:107C50004FEA14490EFA07F5B3FBF9F81FFA84FE50
:107C600009FB18300B0C08FB0EFA43EA00439A4557
:107C700002FA07F240D9E31808F1FF3004D29A451E
:107C800002D9A8F102002344A3EB0A0389B2B3FB93
:107C9000F9F809FB183308FB0EFE41EA03418E4553
:107CA0002CD9611808F1FF3304D28E4502D9A8F10E
:107CB0000203214443EA0040A0FB0298A1EB0E011D
:107CC0004145CE46434602D306D14D4504D2B9EBD9
:107CD000020E68EB04030138002EA6D0B5EB0E02AD
:107CE00061EB030101FA0CFC22FA07F34CEA0303EF
:107CF000F940C6E9003198E74046C5E74346D9E771
:107D0000034613F8012B002AFBD1181A01387047DB
:107D10002DE9F047964D974E9AB0002494480BF009
:107D20004CF938B99448214609F088FC00201AB073
:107D3000BDE8F0872A69A968136843F0806313607F
:107D40000B6832461A2128469847002802DA8B48E9
:107D50002146E9E70134032CE0D10021012000F0A5
:107D600083FA874D28460BF028F918B9854809F0A1
:107D700065FCDBE784480BF020F908B98348F6E797
:107D8000834809F05BFC0121002000F06DFA002718
:107D90006823CDE90837AE68D6F80080B8F1000F47
:107DA00001D17C48E3E708AB3A4621462846C04764
:107DB0000028F6DB34680CB97748D8E708AB3A46B8
:107DC00007212846A0470028F6DB744B0793B368C9
:107DD0000BB97348CBE7734A694807A9984700284D
:107DE000F7D1AB686648DB683A219847011EC0F2BC
:107DF000B7805DA5D5E90045DFF8AC91DFF8AC812F
:107E0000DFF8ACA1484609F019FCDAF80400FFF7E6
:107E1000C9FA22462B46FFF759FC0646DAF800005D
:107E2000DFF890A10F46FFF7BDFA02460B46304639
:107E30003946FFF76BF9CDE90401DAF80400FFF7E2
:107E4000B1FA22462B46FFF741FC0646DAF800005D
:107E5000DFF864A10F46FFF7A5FA02460B4630464D
:107E60003946FFF753F9CDE90201DAF80400FFF7CC
:107E700099FA22462B46FFF729FC0646DAF800005D
:107E8000DFF838A10F46FFF78DFA02460B46304661
:107E90003946FFF73BF94A4BCDE90001402200216A
:107EA0000AA80BF019FC0AA9404609F0C7FBDAF84A
:107EB0000400FFF777FA22462B46FFF707FC064639
:107EC000DAF80000DFF8FCA00F46FFF76BFA024675
:107ED0000B4630463946FFF719F9CDE90401DAF8C7
:107EE0000400FFF75FFA22462B46FFF7EFFB06463A
:107EF000DAF80000DFF8D0A00F46FFF753FA024689
:107F00000B4630463946FFF701F9CDE90201DAF8B0
:107F10000400FFF747FA22462B46FFF7D7FB064639
:107F2000DAF800000F46FFF73DFA02460B463046EE
:107F30003946FFF7EBF8254BCDE90001402200213F
:107F40000AA80BF0C9FB0AA9404609F077FB204BB1
:107F500001221A6000214FF4004007F00DFE4FE7A8
:107F60001C48E1E6AFF300800000000080842E4151
:107F7000D83B0300010006003645030049450300D5
:107F80003C3C03005E450300503C03007945030080
:107F9000904503009F450300D14503000100030005
:107FA000FA4503009D820200494603007146030022
:107FB00098070020A0070020A807002080070020C5
:107FC0004D460300880700209007002075460300F7
:107FD000B407002021460300F8B5044608461546BC
:107FE000FFF7E0F9064628460F46FFF7EDF902468F
:107FF0000B4630463946FFF73FFA0FA3D3E900237B
:10800000FFF73AFA0E4B0022FFF760FB06460F46D9
:10801000FFF744FC0A4B2060002230463946FFF748
:108020002BFAFFF73BFC4FF47A7290FBF2F303FB61
:10803000120353436360F8BD05A3923A019D2340A8
:1080400000408F4000000000F8B504460846154681
:10805000FFF7A8F9064628460F46FFF7B5F902468E
:108060000B4630463946FFF707FA0FA3D3E9002342
:10807000FFF702FA0E4B0022FFF728FB06460F46D9
:10808000FFF70CFC0A4B2060002230463946FFF710
:10809000F3F9FFF703FC4FF47A7290FBF2F303FB62
:1080A000120353436360F8BD6811F16346DF913FEB
:1080B00000408F4000000000032970B504460D46C3
:1080C00004D0072953D06FF0850027E0002A3BD069
:1080D000072AF8D158681A685B4BC117C2FB030125
:1080E000012871F100033FDB584BC01841F100013A
:1080F0004FA3D3E90023FFF749FC022826690ED0DD
:1081000010280ED004280ED008282DD1294620464C
:108110000AF047FA002808DA6FF0040070BD002565
:10812000F4E70125F2E70225F0E7494B33F81500A3
:10813000FFF738F940A3D3E90023FFF79DF9FFF7D4
:10814000D5FBF0600020E9E71988424B33F8020BB9
:10815000814206D1D1B2204604F072FB0028F1DA48
:10816000DAE701320C2AF1D16FF01500D6E7002AC8
:108170004DD0072AA7D15A681D683348D117134636
:108180000A46C5FB0032B425A3FB0501012B05FB04
:10819000021172F100022ADB2F4BC01828A3D3E989
:1081A000002341F10001FFF7F1FBFA2827D0B0F5D9
:1081B000FA7F26D0B0F57A7F25D0B0F5FA6F24D0BB
:1081C0007D28D1D104252946204626690AF0F9F9EF
:1081D0000028A1DB214B33F81500FFF7E3F8204B13
:1081E0000022FFF749F9FFF781FBF061AAE71D4B79
:1081F000C01861F1000112A3D3E90023D3E70025E1
:10820000E1E70125DFE70225DDE70325DBE7198844
:10821000104B33F8020B814204D1D1B2204604F056
:10822000F3FA9BE701320C2AF3D19DE7AFF300800C
:108230003AA395000000000008AC1C5A643BAF3F15
:10824000D8EF2F000000000040420F009DD14A00EF
:10825000164503001E450300ECF717000C4503000C
:10826000008011401408E8FF10B50C46014608488C
:1082700009F0CBF950B10748214609F0C6F928B1F9
:10828000BDE810400448002109F0BFB910BD00BF8F
:10829000A8400300B0400300B84003002DE9F047B8
:1082A0002C4A13680133044613608368DFF8A8A0E2
:1082B000DB68DFF8A890DFF8A880032198475246D2
:1082C0002046002109F0B5F94A462046012109F06F
:1082D000B0F942460221204609F0ABF9A368214FCC
:1082E000DB68214E214D0721204698473A4604215C
:1082F000204609F09EF932460521204609F099F9F9
:108300002A460621204609F094F9194B1A68FAB159
:108310009AE8030000221A60164B83E8030099E8EC
:108320000300154B83E8030098E80300134B83E830
:10833000030097E80300124B83E8030096E803006C
:10834000104B83E8030095E803000F4B83E803001C
:10835000BDE8F087B00700207807002070070020F4
:108360006807002060070020580700205007002001
:10837000B4070020A8070020A007002098070020CD
:10838000900700208807002080070020014B1B6811
:10839000184700BFB0000020014B1860704700BFB5
:1083A000B000002030B585B004460D4610220021F3
:1083B00068460BF076F902238DF802302A46044B0A
:1083C00001932146684608F05BF805B030BD00BF58
:1083D0008D83020080B505460E461746984607F085
:1083E000FFFB03460BF082FBDFF81890044649F8C8
:1083F0000030424630463946A84754F8090001F09B
:1084000019FD00BF080000002DE9F047058B044668
:108410002807904611D4022905F0070540F0CD80C9
:10842000204609F0FEFA78B10138218B042811D8D2
:10843000DFE800F0C3106D85950001290CBF45F001
:10844000100545F02005258388F31188BFF36F8F51
:10845000BDE8F08701F0070AAA4500F0A6800027D2
:10846000B9463E46A368002B00F0BD8041F00801EC
:10847000218388F31188BFF36F8FA168002900F072
:10848000BB800D68002900F0B780D1F80480334626
:1084900052462046C047002D76D02B6829461D46FF
:1084A000F0E701F007035A1F012A1BD8002221F030
:1084B0000701062B276889B2C4E9002209D13B468F
:1084C00003E0628B013262831B68002BF9D141F01B
:1084D00002012183204609F0A4FA00287BD041F054
:1084E000200177E0042B0AD121F0070189B2218312
:1084F000204609F096FA10B141F020012183218B2A
:1085000001F0070AAA4550D00027B946AAE7236917
:1085100021F0070141F00601062DD3F800902183D8
:108520002DD1B9F1000F40D041F00801218388F32B
:108530001188BFF36F8F3A492046C84729E021F0E0
:108540000701236941F0040189B2042DD3F8049096
:108550002183E6D000273E464FF0040A82E721F04F
:108560000701236941F0050189B2052DD3F8089070
:108570002183D6D000273E464FF0050A72E7002738
:108580003E464FF0060A6DE72B4687E7B9F1000F2C
:10859000D1D14FF02003EFF3118883F31288BFF39A
:1085A0006F8F238B23F008032383258BEA062ED5B8
:1085B00025F01003238305F007056669218B002E43
:1085C000BFF66FAF00232768C4E9003321F007012D
:1085D00041F001012183218B01F0070AAA454FF0E8
:1085E00000097FF43FAF002F9BD041F008012183A9
:1085F00088F31188BFF36F8F002FC7D03D683946CD
:1086000033465246204609F038FA2F46F4E7AB06C7
:108610007FF51AAF25F02003238305F00705FFE659
:10862000A71A030008B504464FF02002EFF31183A8
:1086300082F31288BFF36F8F04F004FE204601F02E
:10864000A3FB034808F0FAFF01F01CFDFCE700BFA4
:1086500095460300014B036000207047C0400300B3
:10866000F0B40C4B0C4E5F6A0C4BB34203D36FF06B
:108670008500F0BC70475D68BD4209D31C693CB100
:1086800095F802C00579AC4502D12346F0BC1847E5
:108690002433EAE7B80700202C0400200804002057
:1086A0002DE9F047134CDFF85080DFF85090054675
:1086B0000E461746444503D36FF08500BDE8F087AA
:1086C0006268D9F824309A4212D3A36983B19078B2
:1086D0002979884205D13A4631462846BDE8F04717
:1086E00018475279012A03D13A463146284698471D
:1086F0002434DFE7080400202C040020B807002001
:108700002DE9F0410B4CDFF8308005460E46174648
:10871000444502D36FF0850009E063690BB9243446
:10872000F6E73A463146284698470028F7D1BDE893
:10873000F08100BF080400202C04002010B504467E
:1087400009F083FC10F1780F00D050B9054A20469B
:1087500009F02AFBD2F8C43023EA0003C2F8C4307F
:10876000002010BDB8070020024B00221A605A609A
:10877000704700BF7308002070B50B4B0B4CA34231
:1087800001D3002070BD196A1E7F00220439D5B2C2
:10879000AE4201D82433F2E7013211F8325085425B
:1087A000F5D10120EEE700BF080400202C040020D2
:1087B00008B509480378C3F341130A3350F823304E
:1087C0003BB100F1080200F110019847C043C00F0F
:1087D00008BD1846FCE700BFB807002004282DE9B3
:1087E000F14FDFF8989004460F4616D001282DD19E
:1087F000DFF88C8098F8B93043B300F007FE214DC4
:108800004D4520D2D5F820B04FF0000A2B7F5FFAFB
:108810008AF6B34204D82435F2E7FFF7A5FFE7E76D
:108820000BEBC6060AF1010A307909F00EFC02468C
:10883000307909F0B9FAD8F8C430002A23EA0003E5
:10884000C8F8C430E2DA002388F8B9300D4D4D4540
:1088500008D30B4B1B6A6BB13946204601B0BDE80B
:10886000F04F1847EB681BB13A4621462846984717
:108870002435ECE701B0BDE8F08F00BF2C040020E8
:10888000B80700200804002073B5C4B263060D4683
:108890008DF8074007D02046FFF76EFF78B10D4BEB
:1088A00093F8BA0058B10B4E204655B102F054F976
:1088B000F3691BB10DF1070108209847012002B0B0
:1088C00070BD02F071F9F369002BF7D00DF10701CB
:1088D0000920F2E7B807002073B586788DF80060AC
:1088E000037942791C4C43EA0223ADF80230C37885
:1088F000304603F003038DF8043009F055FAD4F83C
:10890000C430184205460BD0304600F061FD3046B9
:10891000FFF714FF0AF0AAFB10B9962007F046F9FA
:10892000684602F0F5F810F1780F03D010B100207E
:1089300002B070BD9DF8000002F072F910F1780FDE
:1089400001D00028F3D1D4F8C43001202B4384F89F
:10895000B900C4F8C430EBE7B80700202DE9F047B0
:10896000A34EB36904460F461546FBB9237803F0BE
:108970001F03012B00F09D80022B00F0048133BB0C
:1089800094F900002A686178002834DA062912D0A8
:1089900008292BD0D9B901231370517096F8C33030
:1089A0005B0043F00103137002232AE1984700287B
:1089B000DCD100200DE06288100A011F01298446E5
:1089C00005D9072803D8716AD2B20C781CB96FF0A8
:1089D0001500BDE8F0874E78664503D19A4200F055
:1089E0000B8101332144F0E70B780AE196F8BA30A5
:1089F0001370012305E101390829E8D801A353F8D0
:108A000021F000BF9D8A0200CF890200AB8A0200DC
:108A1000CF890200298A0200CF890200CF89020093
:108A2000CF890200358A0200A07802F05FF80028A2
:108A3000BFD0CCE76388756A63BBFFF795FE638898
:108A400086F8BA30F369002BB3D06A4903209847FF
:108A5000AFE76B78042B10D0052B11D0022B04D17B
:108A60006F796388BB4208BF01202B781D442B78A7
:108A7000002BEED10028AAD0DFE795F80380F4E7B9
:108A80006388BB42F1D1B8F1000FEED12846FFF761
:108A900023FFEAE7FF270020B846E8E76388012BB9
:108AA00095D1002386F8C33083E76388012B8ED1EC
:108AB000F8E796F8BA30D5F800C0002B87D0756A71
:108AC000A38894F804E02A46107800283FF47FAF8A
:108AD0005178022904D192F80480F04500F2938085
:108AE0000244F1E78CF800208CF80120396060E73F
:108AF000154494E00B2A7FF46AAF00274FF0FF087B
:108B0000C146BA4606E06B78042B0FD0052B21D066
:108B10002B781D442B78002BF5D1F36913B1514606
:108B200007209847002F7FF444AF50E795F8028064
:108B3000A38895F803909845EAD163889945E7D1D1
:108B4000B8F1070F1CD806EB0803AA4683F8BB90C0
:108B50000127DDE7A3884345DAD1A3784B450AD046
:108B6000AF78384600F034FC3846FFF7E7FDB0FA3E
:108B700080F77F09CCE72846FFF7AEFE0746C7E738
:108B8000AA460027C4E794F900206378002A18DA7F
:108B9000002B7FF41CAF24792D6863060AD0204691
:108BA000FFF7EAFD00283FF412AF96F8BA30002B29
:108BB0003FF40DAF2946204602F016F800236B70F3
:108BC000F2E6012B08D0032B7FF401AF6388002B62
:108BD0007FF4FDAE012103E0618800297FF4F7AE48
:108BE000A088FFF751FE00287FF4E3AEEFE600BF58
:108BF000B807002072080020022829607FF4F4AE34
:108C00004B883B60D5E694F9000062780028BFF6F7
:108C100071AF002A3FF466AF0A2A7FF4D8AE2A78F3
:108C2000002A3FF4D4AE697804297FF461AFA978B3
:108C30008B427FF45DAF072B96BF9B19002393F8FF
:108C4000BB308CF80030D4E613B5164C237DF3B955
:108C5000E268A168019201AB802009F0B3F8019AA3
:108C6000A3681344A360E3689B1AE3606BB962B125
:108C70002369E2889A4208DD94F8C82093FBF2F158
:108C800002FB11330BB90123237502B010BD002381
:108C90001A4619468020237502B0BDE8104001F045
:108CA000E9BF00BFB807002030B585B000230246F9
:108CB0000D460193002858D1002935D108220B46D2
:108CC0000DEB020109F0DAF9002804DA802001F046
:108CD00043FF05B030BD2A4C029A2260039A6260BD
:108CE00004F13802A2609DF90820BDF80E30257508
:108CF000002AC4E903550ADB802B04D9802001F047
:108D00002BFF0020E3E713B1C4E90333E1E7FFF7EA
:108D10004FFD0028DAD0E28823699A42D4BFE2608E
:108D2000E360FFF791FFD4E7154CD4E90215002D5D
:108D300001AB04DC09F0A2F90028CADAC6E72A462A
:108D400009F09CF90028D9DB019AA3681344A360B9
:108D5000E3689B1AE360002BBBD104F13803A360E6
:108D6000FFF726FD0028DCD1B0E78028B1D1044B05
:108D7000DA68002AD5D11B7D002BD2D1A9E700BF2C
:108D8000B8070020054B064A9A62064ADA62064A8C
:108D90001A63064A58629A6100207047B80700209B
:108DA0005D8902006186020001870200A18602003F
:108DB0002DE9F341414D04466F6A41484FF0FF32BF
:108DC0004FF0FF3306F0A0F995F8B860002E6ED191
:108DD0003C482C62E86102F067F801F055FE041E81
:108DE00049DB00F037FB041E45DB7B78012B61D1AA
:108DF000FB79002B5ED0684685F8C830ADF80230AC
:108E00008DF804608DF8006001F082FE041E32DBF4
:108E1000802768468DF8007001F07AFE041E2ADB78
:108E20002949304602F02CF8041E24DB2649384636
:108E300002F026F8041E1EDB244CDFF89480444523
:108E400020D3002001F0ECFE041E14DBD5F8C43062
:108E5000802043F00103C5F8C43001F0E1FE041E98
:108E600009DBD5F8C43043F48033C5F8C43001239E
:108E700085F8B8300024124806F00AF9204602B0FE
:108E8000BDE8F081276A0026227FF3B29A4201D81A
:108E90002434D4E707EBC30257F83310107901F0FC
:108EA000EFFF01360028EFD04FF0FF34E3E76FF01B
:108EB0007704E0E76FF01504DDE700BFB807002096
:108EC00030030020DD870200A98C02000804002086
:108ED0002C04002010B50A4B93F8B8404CB900F0B0
:108EE00055F848B1FFF74EFF2046BDE81040FFF7A8
:108EF0005FBF6FF0770010BD4FF0FF30FBE700BFA2
:108F0000B807002030B51F4B8BB005AA03F1100540
:108F100018685968144603C40833AB422246F7D197
:108F20001B7823701022002101A80AF0BAFB12223C
:108F3000002115480AF0B5FB102101A809F0B7F986
:108F400000281BDD0828B8BF0820093801AB0E49EE
:108F50001A18002012F8013F0AAC04EB131403F0B6
:108F60000F0328336B44013014F8144C13F8143CED
:108F70000C7008284B7001F10201EBD102480BB0D4
:108F800030BD00BFBE460300001D00202DE9F04F9C
:108F9000704C87B04FF0000B00264FF0011AB0461E
:108FA0003546B14623782BB96B4B02349C42F3D142
:108FB000684833E06378052B1BD8DFE803F09003A3
:108FC000C8901D3B402304A88DF810B0ADF81230B6
:108FD0008DF814B009F024F840B1082304A8ADF8C6
:108FE000123009F01DF808B1ADF812B0BDF812301A
:108FF000E37123781C44D5E7E378002BF9D1A378FB
:109000007BB108F101085FFA88F8F2E76B689C42CF
:1090100009D02435514B9D42F8D3002007B0BDE85C
:10902000F08F4F4DF6E7AB68002BEAD04146204663
:109030009847E6E7002DF0D000222B7F9A42ECD231
:10904000296AA07801EBC2010B79984201D0013264
:10905000F3E70127E07800F003008DF81400207991
:1090600094F805C040EA0C20ADF8120094F9020013
:109070000028FBB228DA07F110004FF0010C0CFABF
:1090800000F010EA0A0F26D143F080008DF810009E
:1090900004A8CDE90213019208F0C2FFDDE9012125
:1090A000039BC0B99DF81020A27012F0800F18BF6A
:1090B00010330A7118BFDBB24FF0010214BF9A409F
:1090C000BA404AEA020A94E70120B84010EA0A0FBF
:1090D00001D11846DAE70137102FBBD1B7E7032ECD
:1090E0001DD1FFF70FFF074668B1FEF709FE1028F4
:1090F00009D13846A31C07F1100250F8041B43F8AD
:10910000041B9042F9D123786FF00201E218091B89
:1091100004EB5303D14213D50136F6B269E7002EB2
:10912000F1D1B9F1000F3FF478AFA4EB090389F84E
:109130000230C3F3072389F8033089F80480EBE792
:1091400002F801BC13F8010902F8020DE2E7A1469A
:109150004FE700BF64030020070400202C04002018
:109160000804002010B5094B00211A461C788442DF
:1091700004D15C6814B102EB811010BD01310429E7
:1091800003F14003F2D10020F7E700BF840800207C
:109190002DE9F34150F8283C10F82C6C10330446AC
:1091A0000AD1036950F8202C980736D5D2B959074F
:1091B00015D5002344F8283C54F8283C10330BD034
:1091C00054E9077554F8148C09F050FF00284FD06B
:1091D0002E4821460AF043F802B0BDE8F08143F082
:1091E0000403236154F8241C01AB304608F0EAFD67
:1091F00010B16FF01503DDE7019A54F8243C1344D5
:1092000044F8243C54F8203C9B1A44F8203C54F881
:109210001C3C134444F81C3CCEE754F8241C01AB1E
:10922000304601F0A3FD0028E3D1019D54F8243C11
:109230002B4444F8243C54F8203C5B1B44F8203C6D
:1092400054F81C3C2B4444F81C3C002DB1D0304653
:1092500001F030FEB5FBF0F303FB1055002DA8D153
:1092600054F8203C002BA4D0304601F0C7FDA3E702
:1092700044F8180CA4F1100005F0F4FF002DABD059
:10928000424639463046A847A6E700BF30040020D2
:109290004B1E012B73B506460D460FD8FFF762FF34
:1092A000044668B9012D09D101AB01220DF103017A
:1092B000304601F05BFD019B002BF5D102B070BD83
:1092C00009F0D4FE04F12C0108B1012D05D10846A6
:1092D00002B0BDE87040FFF75BBF034802B0BDE8D5
:1092E000704009F0BCBF00BF300400202DE9F74FEB
:1092F000064601911546984608F0ACFD0446002844
:109300005CD14FF02003EFF3118A83F31288BFF38F
:109310006F8FDFF8B0B000220023584605F0C6FF7B
:1093200070B9DFF8A490A70109EB8414636813F106
:10933000100F14D10193584605F094FF019B06E0ED
:109340000134042C0BF1400BE5D16FF00B038AF3D1
:109350001188BFF36F8F184603B0BDE8F08F019BF3
:109360002061C4E902350C9B63610D9BA36130460B
:109370006FF00F0309F80760C4F83C80636001F0E8
:1093800099FD58B1304601F095FDB5FBF0F303FBB4
:1093900010551DB1E36B43F00403E36318F0020FB3
:1093A00007D007F12C010948494409F058FF002370
:1093B000CDE7304601F022FD0346C8E76FF00F030A
:1093C000C9E700BFA0080020840800203004002066
:1093D00010B54FF02003EFF3118483F31288BFF32D
:1093E0006F8FFFF7BFFE50B14368103307D16FF0A6
:1093F0008B03436000F12C01034809F030FF84F334
:109400001188BFF36F8F10BD3004002070B50F4C72
:1094100004254FF02003EFF3118683F31288BFF386
:109420006F8F6368103307D16FF08B030848636058
:1094300004F12C0109F013FF86F31188BFF36F8F3D
:10944000013D04F14004E4D170BD00BF8408002058
:109450003004002070B50A4C0A4E002531462046E3
:1094600009F0E0FE0122A4F110001146013509F0D7
:109470009CFE042D04F14004F0D1002070BD00BF1B
:10948000B00800209191020008B50146034808F099
:10949000CBFC10B1012300F8073C08BD8409002073
:1094A0000169012381F84B300B6833B191F84930E1
:1094B0001BB10248083109F0D2BE704730040020C9
:1094C0000169012381F84A300B6833B191F84830C3
:1094D0001BB10248083109F0C2BE704730040020B9
:1094E00070B5012382F8483013680D4614463BB12D
:1094F00092F84A3023B10E4802F1080109F0AFFE9C
:10950000D4F890309A681B699A4205D17DB904F16C
:10951000180140F6CD4204E004F11801002DF8D006
:109520000022BDE870400248002306F01BB870BD61
:109530003004002038B5056995F89E0088B195F88B
:109540009F307BB985F84830D5F8900008F0B7FB1C
:10955000002204460023044805F1180106F002F831
:10956000204638BD0020FCE730040020F0B5D0F8DC
:109570008C305B681B6A1F7D85B00446384608F056
:1095800069FC0646F8B994F88630E3B1A06F4FF451
:10959000806203A908F0B2FB0546A0B18306A4F1DE
:1095A000180308BF00F1FF3584F830600193074BC2
:1095B000039900932A4602233846FFF797FEA06FCF
:1095C000294608F0BBFB05B0F0BD00BFE1940200E6
:1095D00070B504460E4601791548154608F016FC8C
:1095E00010B394F900206378002A16DB202B04D0F6
:1095F000222B0ED06FF085000AE02B681A6840F825
:10960000102C9A8820F80C2C9B7900F80A3C00203A
:1096100070BD638800F8093CF9E7212BEAD11038C6
:10962000072328603360F2E76FF01200F0E700BF15
:10963000840900200D4A03460021A0F84810106854
:10964000C3F8940090889279A3F8980083F89A2040
:1096500083F89C1083F89B10A3F89E1083F8A01049
:10966000402203F14C000AF01CB800BF003E03008A
:1096700010B504690023C4F8A8300C4BC4F8A4004A
:10968000596804F1A80269B9C3E9002204F108008D
:10969000074909F0C7FD04F11800064909F0F0FD7B
:1096A000002010BD0A605A60F0E700BF8409002066
:1096B0007F1E03006D95020013B504698DF8071035
:1096C000002384F84830D4F8900001220DF10701FE
:1096D00008F0F5FA10B909F0C9FC40B121220023C5
:1096E00004F11801064805F03DFF02B010BD94F8E2
:1096F000A130002BF2D00021212006F03DFAE2E754
:109700003004002037B514460A1E054620DDD4F883
:109710008C0004F14C0108F0D2FA012384F849309E
:1097200023683BB194F84B3023B1114804F1080190
:1097300009F095FDD4F88C104B684A699A1ACB69E8
:109740009B1A3F2B04D8012384F8A03003B030BD0E
:1097500094F89E30002BF9D0064B0093019401231E
:10976000402204F14C012846FFF7C0FDEEE700BFA0
:109770003004002005970200F7B50D4601461D484C
:1097800008F038FB044610B30646691E56F8A439A3
:109790005F6805291BD8DFE801F01C1A031C22268C
:1097A00010F8061C99B9012300F8063C3B6A3246C2
:1097B000187BFFF7A7FF14F85C2C42B93B6A187DB1
:1097C0000D4B0093019602231146FFF78FFD03B066
:1097D000F0BD304603B0BDE8F040FFF72BBF0123DA
:1097E00004F8053CF3E710F8053C002BEFD000230C
:1097F000F6E700BF84090020E194020037B5094D67
:109800000949002400944FF0FF334FF4806228464A
:1098100005F070FE0549284609F02EFC204603B0ED
:1098200030BD00BF30040020801D0020DC46030056
:10983000014806F0E1BB00BF0441030038B504460F
:1098400018B90F4B0F485B6898476168B1F5683FDE
:1098500010D0B1F5680F0DD00B4DA9420AD011F40C
:109860006861206807D00146084809F0D9FB002349
:109870002360656038BD142209F013FFF9E700BFCB
:1098800050020020E54603002C5F5CA98C0E0020EE
:1098900008B520B34368B3F5683F10D101220368CF
:1098A000BFF35B8F53E8001F002903D143E800207A
:1098B0000028F7D1BFF35B8F0DD1002008BD094A06
:1098C00093420AD000684FF0FF324FF0FF3305F0AB
:1098D0001BFC0028F1D00448F0E70448EEE76FF4E1
:1098E000E040EBE72C5F5CA9E98FFFFFEA8FFFFF09
:1098F00008B5D8B14368B3F5683F10D100220368BA
:10990000BFF35B8F53E8001F012903D143E8002018
:109910000028F7D1BFF35B8F0BD1002008BD074AA9
:10992000934208D0006805F0B3FBF6E76FF4E0401F
:10993000F4E70348F2E70348F0E700BF2C5F5CA9B7
:10994000E98FFFFFEA8FFFFF10B5044618B91D4BE2
:109950001D485B6898476368B3F5683F2FD0B3F53F
:10996000680F2CD0194A934219D1236803BB1848B9
:109970004FF0FF324FF0FF33214605F0A3FA08B94C
:1099800023681BB90F4B13485B6898472068142263
:10999000002109F086FE4FF46863636008E0B3F5C8
:1099A000683F0DD83A2B03D040F6BA629342DED11D
:1099B000206809F07AFB636843F03A03636010BDE6
:1099C000054AF3E750020020E54603002C5F5CA93E
:1099D0008C0E00200B4703003A00003A08B50649F8
:1099E00006484023142209F00DFBBDE80840044955
:1099F000044806F073BB00BF8C0900208C0E0020C9
:109A00000C4103002041030030BFFFF7FDBF00BF42
:109A1000114B124A2DE9F041D518DFF84480013D81
:109A2000B5FBF3F55D430F4B08EB0304013CB4FBBE
:109A3000F3F403FB04540E1B07460B49304609F0B0
:109A400022FE701942460021083E09F02AFE3E67B8
:109A500004F10800BDE8F0810100000000000000F2
:109A60000400000004000000F83D0300044B996866
:109A70005869884203D003494FF080520A6070470A
:109A8000F01A002004ED00E070B5264B15469A6AE6
:109A900012F0100F9A6A14BF1124102412F0080F4C
:109AA0009A6A18BF1224920706460AD5586B9A6A1A
:109AB000140634D519B19A6A22F080029A621324EE
:109AC00001E06FF01500174B9A6A12F0010F9A6AC5
:109AD00018BF142412F0200F9A6A18BF1524D2065A
:109AE00002D49B6A9B070AD50E4B5B68190506D505
:109AF000314600F08FFA10B180F309880224094B37
:109B00009A6A920642BF5A6A22F400525A629A6ACC
:109B100042F0FF029A6200232B70204670BD6FF066
:109B20001500CCE700ED00E0134B9A6A12F0007FBD
:109B30009A6A14BF1E201D2012F0807F9A6A18BFF7
:109B40001F2012F4002F9A6A18BF212012F4802FD0
:109B50009A6A18BF222012F4003F9A6A18BF232085
:109B600012F4803F9A6A6FEA02426FEA12429A62E6
:109B700018BF2420704700BF00ED00E010B5194B5E
:109B80000246986A9C6A10F4805F14BF1720162062
:109B900014F4006F9C6A18BF1820A40509D5986BAF
:109BA000986A000404D51AB19A6A22F400429A62B3
:109BB00019200C4B9A6A12F4806F9A6A18BF1A2007
:109BC000D2050CD49B6A13F4005F18BF1C20054A11
:109BD000936A43F47F43936200230B7010BD1B20F4
:109BE000F5E700BF00ED00E0F0B5484B5B688BB0D7
:109BF0000446C3F30803002585F31188BFF36F8F74
:109C000002F07F40B0F17F4F11D102F00C00082824
:109C10000DD010074CBF0C4601250022033B8DF8E8
:109C20000720032B05D8DFE803F0246367602C4688
:109C3000F3E700239DF80720CAB902AE04F120071C
:109C400020686168324603C20834BC421646F7D128
:109C5000099A002D54D0C2F3080121B96FEA5222AB
:109C60006FEA4222099202A9184608F06EF90BB079
:109C7000F0BD264BDA6A9107DBD4DA6A002AD8DB1A
:109C8000DA6A5200D5D55A69A16942F480725A61E4
:109C9000BFF34F8FBFF36F8F5A6931F8021C22F464
:109CA00080725A61BFF34F8FBFF36F8F4DF6027210
:109CB00091420AD09A6AD2B24AB10DF1070201214B
:109CC0002046FFF7E1FE0346B4E72368B2E79A6A4D
:109CD00012F47F4F05D00DF107010120FFF74EFF71
:109CE000F1E79B6AB3F5803FA3D3FFF71DFFEAE7D7
:109CF0000DF107020021E3E70DF107010020EDE778
:109D000022F4FF7222F00102ACE700BF00ED00E098
:109D1000024A536943F010035361704700ED00E0BD
:109D2000EFF30880EFF3098101B57246FFF75CFF9E
:109D300001BD00BF002080F31488BFF36F8F00F0D7
:109D400033FB00200D490860BFF34F8F0C4880F3B0
:109D5000088800F03DF8202080F3118809484FF46E
:109D60000461401880F30988EFF31480022108434E
:109D700080F31488BFF36F8F00F014F994ED00E0C6
:109D8000C033002000260020BFF34F8F0549064B4B
:109D9000CA6802F4E0621343CB60BFF34F8F00BF89
:109DA000FDE700BF00ED00E00400FA050749D1F827
:109DB00090200023C2F307221846934200DB70472D
:109DC000C1F89830C1F8A0000133F6E700ED00E0DB
:109DD00008B572B6002383F31388FFF7E7FF144B2F
:109DE0004FF0FF32C3F88020C3F88420C3F88820E6
:109DF000C3F88C20C3F89020C3F89420C3F89820AF
:109E0000C3F89C20C3F88021C3F88421C3F88821BB
:109E1000C3F88C21C3F89021C3F89421C3F898218A
:109E2000C3F89C2162B6BFF34F8FBFF36F8F08BD9D
:109E300000E100E0084B9B6883420BD1EFF3058300
:109E400043B1064B5A6842F080525A605A6A22F473
:109E500000425A6209F005BBF01A002000ED00E054
:109E6000094A93686FF00A019967084958674B6877
:109E700043F080534B60002383F31188BFF36F8F4F
:109E80009368986F704700BFF01A002000ED00E063
:109E900015498A684FF030001044EFF3098C80E8D0
:109EA000F01F202080F31288BFF36F8F0F4F4FF009
:109EB00000664A698A603E604FF070041419206899
:109EC0000B4C2060506F0023536780F3118804B55A
:109ED000104600F01DF9BDE8044002F1300090E8A2
:109EE000F01F8CF309887047F01A002004ED00E0A1
:109EF000A80E00201EF0040F0CBFEFF30880EFF354
:109F00000980816911F8021C0229FFD001B508F00F
:109F10001EF801BD40B2002807DB044A41090123B5
:109F200000F01F00834042F82130704700E100E05C
:109F300040B200280CDB4309064900F01F00203323
:109F40000122824041F82320BFF34F8FBFF36F8F70
:109F5000704700BF00E100E0054B420900F01F0020
:109F600053F82220012303FA00F01040704700BF8D
:109F700000E100E040B20028A8BF00F1604001F11C
:109F80000101B8BF064B4FEA4111ACBF00F561407B
:109F900000F00F00C9B2B4BF195480F80013704725
:109FA00014ED00E00B4A08B50B4B22F07F029A60DB
:109FB000BFF34F8FBFF36F8FD3F8882022F4700266
:109FC000C3F8882004F0ACFE05F022FE00F074F81F
:109FD00004F0F8FE0070020000ED00E042F8203CC2
:109FE000009B42F81C3C0A49019B42F8183C029B2A
:109FF00042F8143C21F001014FF0807342F8043C18
:10A0000042F8081C0023203A02654367704700BFEE
:10A01000D5830200094A0346906870B113F1160F08
:10A02000006E05D0A0F140029A4205D8834203D2C7
:10A03000814228BF0020704700207047F01A00209E
:10A0400008B514460A4A0B4B9060026F1A600D4621
:10A0500000F05EF8204685F30988002163B681F39D
:10A060001188BFF36F8F00220023FEF7B3F900BF02
:10A07000F01A0020A80E0020014910220A60704743
:10A0800010ED00E072B6404080F31188BFF36F8F8F
:10A09000BFF34F8F30BF62B6BFF36F8F704700BF03
:10A0A00072B6494081F31188BFF34F8F20BF80F310
:10A0B000118862B6704700BF044800232021C218EF
:10A0C0000133302B82F80013F9D1704700E100E032
:10A0D00001B5EFF30580A0F110004FEAC00004497C
:10A0E000014409C99847BDE80140024908470000FA
:10A0F000783C03006D9A0200024B034A0348012199
:10A1000000F040B8000004200000002030410300AF
:10A11000026E054B403A1A60044A4021C3E901121D
:10A120001846012100F038B8AC0E002000000B15D5
:10A13000084AC2F898000B6823F01F03034343F05A
:10A140001003C2F89C308B6843F00103C2F8A030C2
:10A15000704700BF00ED00E0044B0522C3F89420D7
:10A16000BFF34F8FBFF36F8F704700BF00ED00E06C
:10A17000BFF35F8F024B0022C3F89420704700BFEB
:10A1800000ED00E010B5034C0123227807F0FEFE3D
:10A19000207010BD121D002008B5094A0023127856
:10A1A00007F0F4FE10F1160F03D0064B002207282B
:10A1B00000DD08BDC3F89800C3F8A0200130F6E721
:10A1C000121D002000ED00E0F0B5454D2C68082C74
:10A1D00085B000F28280FFF7CBFF00200C2684427E
:10A1E0000DD1404D404F2C706846FEF733FA0024E5
:10A1F0000646A6420AD1FFF7AFFF00201CE06968BF
:10A2000006FB0011FFF794FF0130E8E7009800EB30
:10A2100004114FEA041CCB683B40B3F5000F4AD051
:10A220000CD8B3F5001F30D0B3F5800F38D0B3F59C
:10A23000801F12D06FF0150005B0F0BDB3F1807F24
:10A2400042D0B3F1007FF5D150F80C3088684A68ED
:10A2500007F08CFE40F4802009E050F80C3088684C
:10A260004A6807F083FE40F0885040F430200390A5
:10A2700028780728CDE90123DCD801A9FFF758FF8A
:10A280002B7801332B700134B3E750F80C30886819
:10A290004A6807F06BFE40F0885040F40020E6E783
:10A2A00050F80C3088684A6807F060FE40F0E060C3
:10A2B00040F40030DBE750F80C3088684A6807F05B
:10A2C00055FE40F08270D2E750F80C3088684A683A
:10A2D00007F04CFE40F08870C9E74FF0FF30ABE765
:10A2E0003C410300121D00200000F0FF08B5024BA6
:10A2F0001B689847002008BDB80E0020034B044A95
:10A300001860937843F0020393707047B80E0020F2
:10A310002C01002008B5044807F090F9404080F374
:10A3200011884FF0020002DF4747030008B50649D5
:10A33000064821F00701C1F1005202F5802207F022
:10A3400018FB002008BD00BFC7420020BC0E002043
:10A350000E4A0123C2F840354FF080424FF0805141
:10A36000C2F87835D1F83001082808D1D1F8341175
:10A37000052904D80648415C09B1C2F838364FF0C7
:10A3800080430122C3F880250020704700E001408F
:10A390006547030020B1034B800143F001031847D8
:10A3A000704700BF103E030002F07EBF020600F0BF
:10A3B0007F0312D5082B05D1010700F00F0306D546
:10A3C0000E48704710F0780F12D100F00F034C20A8
:10A3D00000EB43100A4B18447047082B05D10207C5
:10A3E00000F00F0306D50748704710F0780FF6D03D
:10A3F00000207047044800EB431070471410002001
:10A40000C80E0020341100203410002001490248F9
:10A4100008F025BFF00E0020D004002001460148BE
:10A4200008F0B8BE5403002002480022002304F0C4
:10A43000E5BE00BF5403002013B5124800F0BEFE75
:10A44000114B98421AD1114803F052FD00241048D4
:10A4500003F094FD0F49104800944FF0FF334FF480
:10A46000806205F047F80D490B4808F005FE0C48DE
:10A470000C4908F0D7FE204602B010BD6FF0040072
:10A48000FAE700BF8DA602000000AD0B794703007C
:10A490005C410300C0210020D00400206B47030072
:10A4A000F00E0020A9A7020010B50E49BFF35B8F84
:10A4B000002351E8002F012A03D141E80030002891
:10A4C000F7D1BFF35B8F0CD151F8044C14392046FF
:10A4D00007F087FB783004D12046BDE8104007F034
:10A4E0005BBB10BDE80E002038B5002464F07F008F
:10A4F000C0B2FFF75BFF013407F07BFD082CF5D1FC
:10A500000E4D0024E0B2FFF751FF036903B9056166
:10A51000013407F06EFD082C05F14005F2D1084822
:10A5200007F067FD074BD3F87C2212B9064AC3F83F
:10A530007C22064807F05DFD002038BD581500203C
:10A5400014100020C80E00205811002034110020E3
:10A5500010B5054CFFF768FF20B14168204608F0B0
:10A560005FFDF7E710BD00BFC402002007B5002360
:10A570000E48002201A904F0A5FC90B1FFF7E8FF06
:10A580000A480022002301A904F09CFC38B9019874
:10A59000042340600374FFF741FFFFF737FF0020FB
:10A5A00001E00198406003B05DF804FBC4020020A4
:10A5B000022810B511D8094B1C5CFFF7D7FF60B11A
:10A5C000002202740472FFF729FF054B93F8243030
:10A5D0001BB1BDE81040FFF719BF10BD764703005F
:10A5E000C80E0020F8B5877806463846FFF7DEFE2D
:10A5F0003B06F578044612D5002D43D1FFF7B6FF90
:10A60000034600283ED00122A5770274032202737C
:10A610009C60FFF703FFBDE8F840FFF7F7BE4DB1C0
:10A62000012D2FD1FFF7A2FF034658B365770574BC
:10A630000573EDE7FFF79AFF20B3B278124B12F0E3
:10A64000800F02F0080111D041B1D3F8A836E360C1
:10A6500001230374022303738460DAE702F00F021C
:10A66000142101FB0233D3F80836F0E711B1D3F817
:10A67000A837ECE702F00F02142101FB0233D3F8F4
:10A680000837E4E7F8BD00BF00700240F0B50646A9
:10A6900089B01422002103A809F003F83378013BA4
:10A6A000052B21D8DFE803F07A0314146A1603237C
:10A6B0008DF814300024FFF759FF0346A0B104744D
:10A6C00000F10802DDE9050182E8030018461DE0FB
:10A6D0000423EDE7B7783846FFF768FE837A04462F
:10A6E00023B1013B022B43D909B0F0BD3B06F578FD
:10A6F00013D5002DF8D1FFF739FF03460028F3D01A
:10A700000122A5770274032202739C60FFF786FE84
:10A7100009B0BDE8F040FFF779BE55B1012DE3D196
:10A72000FFF724FF03460028DED065770574057324
:10A73000EBE7FFF71BFF07460028D5D00123037482
:10A7400002230373846004F10C01B07807F0B2FCBB
:10A75000134AE168B2F88C328B4206D95B1AA2F830
:10A760008C3201F081F83846D0E7A2F88C52FAE733
:10A77000304609B0BDE8F040FFF734BF01A801F052
:10A7800051F89DF80530052B04D19DF8043013F0E5
:10A79000600FA9D0034B059301248CE702248AE7BC
:10A7A000C80E0020341000202DE9F043A64CDFF83D
:10A7B0009C9285B08046FFF737FE074610B905B07A
:10A7C000BDE8F08394F825303A7C3BB9002A00F0CC
:10A7D000868079689D4808F023FCECE7042A42D87B
:10A7E000DFE812F07D0005000001160140013B7B0F
:10A7F000BD68032B37D8DFE803F0023D5A5F6E696E
:10A80000934B002232607260D3F880143170D3F819
:10A8100084147170D3F88814D3F88C0441EA0021B1
:10A820007180D3F89014D3F8940441EA0021B180E8
:10A83000D3F89814D3F89C3441EA0323F380082317
:10A84000EB6030687168834B03C311462B68687AEC
:10A85000984796F90030002B08DBF38833B1A4F851
:10A860008C3201F001F879684846B4E70023A4F877
:10A870008C32F8E76B7F002BF5D02B7F002BF2D0CA
:10A8800000266E774FF0FF3273482E774FF0FF337C
:10A8900007F0C2FB6B6901936B68CDE9023601A931
:10A8A000687A00F0E1FC6C4807F0B8FBDBE72B6846
:10A8B0000121687A9847D6E7AB7A6BB9EB7F5BB931
:10A8C00065484FF0FF324FF0FF3307F0A5FB00F073
:10A8D000D1FF614807F0A2FB2B680221E9E73A7A31
:10A8E000042AC0D8DFE802F059032367730000F0A0
:10A8F00031FC05460028B6D100F06AFBBFF35B8F40
:10A900005649012351E8002F002A03D141E80030C5
:10A910000028F7D1BFF35B8FA5D141F8085C41F85F
:10A92000105CE0696361143907F0DEF89BE70025ED
:10A9300065F07F00C0B2FFF739FD037A13B1407AAA
:10A9400001F000F90135082DF2D194F854311BB112
:10A9500094F8550101F0F6F80025E8B2FFF726FD5E
:10A96000037A13B1407A01F0EDF80135082DF4D1E6
:10A9700094F874321BB194F8750201F0E3F80020EA
:10A9800000F0CCFB012384F825302368002B3FF432
:10A990006AAF00210220984765E7002584F825501A
:10A9A00001F036F8FFF780FD2368002B3FF45BAF22
:10A9B00029460420EFE7002B3FF455AF00F0D4FB0D
:10A9C0002368002B3FF44FAF00210520E3E7226806
:10A9D000002A3FF448AF002B3FF445AF002106208A
:10A9E000904740E708F110054FF0FF334FF0FF327A
:10A9F000284607F011FBFFF777FD284607F00EFB0E
:10AA000058F8283C002B3FF42EAF00210120C2E76C
:10AA100094F874327BB1012584F8895284F8885205
:10AA2000FFF7A4FD38B10E4A057405738260FFF785
:10AA3000F5FCFFF7EBFC58F8283C002B3FF413AF74
:10AA400000210A20A7E700BFC80E0020C402002092
:10AA500000700240CC0E0020000F0020E80E002005
:10AA60003411002008F085F900F0D2FF00F0A6FABA
:10AA7000FFF76EFDFFF738FD08F074F9014800F0AC
:10AA80009DFBF0E68DA6020038B5164D95F82440E2
:10AA90002CBB05F1380008F008FB204601F090F9C6
:10AAA00022460121E8612720FFF764FA08F05AF9ED
:10AAB000FFF71AFD044610B9012385F824300A4B2C
:10AAC0001B680BB1FFF7A2FC4FF08043D3F838347A
:10AAD000DB0702D50020FFF76BFD204638BD0024C0
:10AAE000FBE700BFC80E002054030020074B93F87B
:10AAF00024203AB193F82530002B14BF00206FF0CA
:10AB0000120070476FF01200704700BFC80E00209F
:10AB100038B5104B93F824300446C3B10578284665
:10AB2000FFF744FC10B96FF0150038BD457223796A
:10AB30008372638843602078618810F0080F02D127
:10AB40004B1E0B42EFD107F0B0FA0020EDE76FF09B
:10AB50001200EAE7C80E002038B5124B93F8242003
:10AB60000546CAB193F82530B3B1FFF71FFC044680
:10AB7000A8B1837A012B12D007D9023B012B07D948
:10AB80006369A3610020E06038BD00F079FEF7E75B
:10AB9000284600F01BFEF3E76FF01200F4E76FF0B9
:10ABA0001500F1E7C80E002038B50E4B93F82420AD
:10ABB000054682B193F825306BB1FFF7F7FB68B11A
:10ABC00015F008040AD1284600F022FE284600F0BD
:10ABD000F3FF204638BD6FF01200FBE76FF0150061
:10ABE000F8E700BFC80E002038B50C4B93F82420BE
:10ABF00005460C4662B193F825304BB1FFF7D6FB02
:10AC000048B144B1284600F0E9FD2070002038BD6D
:10AC10006FF01200FBE76FF01500F8E7C80E002098
:10AC200070B5134E96F824300446C3B1FFF7BEFB4F
:10AC30000546B8B1230705D4204600F0E9FD2046BB
:10AC400000F0BAFF2B7A83B901232B7296F82530D6
:10AC50000BB9002070BD204600F074FFF9E76FF0DB
:10AC60001200F7E76FF01500F4E76FF07700F1E7F7
:10AC7000C80E00202DE9F043DFF8E4801E4698F866
:10AC8000243085B0074689461546002B61D098F8D8
:10AC90002530002B5DD003065ED5FFF787FB044609
:10ACA000002859D0037A002B56D04FF0FF334FF0D5
:10ACB000FF3208F1380007F0AFF9A37F4BB108F17C
:10ACC000380007F0ABF96FF00A04204605B0BDE884
:10ACD000F083A37AC5B13BB30123A3774FF00008FB
:10ACE00001A93846CDE90195CDF80C8000F0BCFAF9
:10ACF0001C4B984229D084F81E801EBB6FF00404C0
:10AD0000194807F08BF9E0E7E27F02B1E577002B05
:10AD1000E2D100F0BBFDB842DED000F0ABFD12483E
:10AD200007F07CF90024D0E7B8F80A30AB42F0D93C
:10AD30006268B5FBF2F302FB1353002BE9D1012348
:10AD4000E377E6E7C6F80080D8E706B1356000246F
:10AD5000D6E76FF01204B8E76FF01504B5E700BF4F
:10AD6000C80E00200000AD0B000F00202DE9F041BF
:10AD70001D46204B174693F824200E46002A33D058
:10AD800093F8253083B3030631D401B97FBBFFF7B5
:10AD90000DFB044658B3037A4BB34FF0FF3316480C
:10ADA0004FF0FF3207F038F9E3689F42B84628BFFA
:10ADB000984646B93FB905B12B600F4807F02EF908
:10ADC0000020BDE8F081A1694246304608F05BFCF6
:10ADD000A3694344A361E368A3EB0803E360002D88
:10ADE000EBD0C5F80080E8E76FF01200E9E76FF0FC
:10ADF0001500E6E7C80E0020000F002070B51E4DBC
:10AE000095F82420034682B395F825206AB31B06E3
:10AE10002ED4FFF7CBFA044650B3037A43B34FF076
:10AE2000FF334FF0FF3205F1380007F0F5F8E36823
:10AE3000B3B9012663692677A361637F83B1FFF706
:10AE400095FB30B905F1380007F0E8F86FF00B001A
:10AE500070BD067484600673FFF7E0FAFFF7D6FA58
:10AE6000064807F0DBF80020F2E76FF01200EFE78A
:10AE70006FF01500ECE700BFC80E0020000F0020A7
:10AE800010B5084B93F824300C462BB1FFF78EFA1F
:10AE900028B10460002010BD6FF01200FBE76FF0D6
:10AEA0001500F8E7C80E0020014B1860704700BF7E
:10AEB000C80E002008B5074B93F8243023B1FFF7E4
:10AEC00075FA20B1406808BD6FF01200FBE76FF023
:10AED0001500F8E7C80E00204FF08053D3F830215A
:10AEE000082A06D1D3F83431052B04D8034AD05CA4
:10AEF0007047002070470120704700BF7A47030069
:10AF0000064B10F0800FA3F1D80208BF134600F0E3
:10AF10000F00182202FB0030704700BF701800209D
:10AF20004FF02003EFF3118083F31288BFF36F8F8C
:10AF30000A4BD3F8001C032261B949F27531C3F8FA
:10AF4000001CC3F8142DC3F8001C80F31188BFF354
:10AF50006F8F7047C3F8142DF7E700BF00E006407D
:10AF60004FF02003EFF3118083F31288BFF36F8F4C
:10AF70000A4BD3F8001C61B949F27532C3F8002CB2
:10AF8000C3F8141DC3F8002C80F31188BFF36F8F32
:10AF900070470022C3F8142DF6E700BF00E006401A
:10AFA0004FF08053D3F83031082B02BF024B002200
:10AFB000C3F81C2C704700BF00700240024A0023F7
:10AFC0001360024A1370704750190020171D0020AB
:10AFD00008B54B4B4FF40062C3F80024FFF77CFF29
:10AFE00008B1FFF79DFF4FF08053D3F83031082BA5
:10AFF00019D14FF02003EFF3118083F31288BFF3D0
:10B000006F8F404BD3F8001CC02200296FD149F24A
:10B010007531C3F8001CC3F8142CC3F8001C80F36E
:10B020001188BFF36F8F364B0122C3F80025D3F888
:10B0300000241205FBD54FF40062C3F800244FF042
:10B040008053D3F83031082B18D14FF02003EFF3A1
:10B05000118083F31288BFF36F8F2A4BD3F8001C43
:10B06000002947D149F27532C3F8002CC3F8141CEB
:10B07000C3F8002C80F31188BFF36F8FFFF72CFF0C
:10B0800030B1FFF76DFFFFF727FF08B1FFF748FF6B
:10B090004FF08053D3F83031082B194B0AD140F2CE
:10B0A000E372C3F800284022C3F80428BFF36F8F6F
:10B0B000BFF34F8F8022C3F81C250122C3F830252F
:10B0C000114B40F2FF121A60104B00211960104B17
:10B0D0001970FFF765FF0F4B19700F4B02221A70A2
:10B0E000FFF7FAFE50B1BDE80840FFF739BFC3F8DB
:10B0F000142C94E70022C3F8142CBBE708BD00BF52
:10B100000070024000E006404C1900204819002061
:10B11000131D0020151D0020171D0020094B0022C3
:10B1200010B51A70084A094B094C002808BF13468D
:10B13000C4F800332720FEF7EDFE0123C4F80435E0
:10B1400010BD00BF161D0020FDFFDF01FDFFFF0148
:10B1500000700240034B1878012894BF00200120A2
:10B16000704700BF171D002010B54FF02003EFF30C
:10B17000118183F31288BFF36F8F0E4B1B7803F09E
:10B18000FF0083B10C4BD3F8002412F400720AD1F3
:10B190000124C3F82C45D3F82C45D3F80044A4056A
:10B1A00002D5C3F82C25002081F31188BFF36F8FDF
:10B1B00010BD00BF161D002000700240F8B51C4BEA
:10B1C0001C7894BB1B4A106001221A7040F2FF17D2
:10B1D000264664F07F0514F0080FEDB214BF39461F
:10B1E0004021284606F061FF2846FFF789FE01341A
:10B1F000092C867506730661EBD1002440F2FF1717
:10B20000254614F0080FE6B214BF394640213046F7
:10B2100006F04BFF3046FFF773FE0134092C8575AD
:10B2200005730561EDD10448F8BD0448FCE700BF93
:10B23000171D0020501900200000AD0B0500AD0BBC
:10B24000084B10F0800F00F00F0114BFD3F8102549
:10B25000D3F8142501238B40134214BF0120002092
:10B26000704700BF007002402DE9F84302464FF0DE
:10B270002003EFF3118783F31288BFF36F8F030767
:10B2800003D1194B1B78834229D1184B184E1C68E7
:10B290003568104606F001FFE443A4B24FF00109FF
:10B2A0002C4309FA00F814EA08041AD11046FFF7F3
:10B2B00027FE80F80C90034607C91C6183E807004D
:10B2C0009C750C4B0C4845EA080580223560C3F894
:10B2D000042187F31188BFF36F8FBDE8F883074817
:10B2E000F7E70748F5E700BF151D00204C190020BF
:10B2F0004819002000E100E00000AD0B0A00AD0B92
:10B300000B00AD0B10F0080F074B06D0D3F8C004AC
:10B3100010F4803F18BF0020704700F00F0000F5C8
:10B32000947053F820007047007002402DE9F74FE9
:10B33000A84BD3F8604134B10022C3F86021D3F8A0
:10B340006C44C3F86C44D3F828214AB10022C3F8F6
:10B350002821A14B187806F0A0FE012383401C434E
:10B360009E4F9F4E3D7897F9008015F0080143D11C
:10B37000B8F1000F05F00F032EDA9A4A52F82300B5
:10B3800020B342F823101422534303F1804303F502
:10B390001C33D3F80836944A117803F001034B406C
:10B3A0001370FFF7FDFD914803F05CFF2846FFF79F
:10B3B000A7FD837D032B37D1284606F06EFE0123BF
:10B3C00003FA00F0336823EA00033360DFF82092C9
:10B3D000DFF8208201255FE0874A52F82300002829
:10B3E000F4D042F823101422534303F1804303F5B1
:10B3F0001C33D3F80837CEE7B8F1000F754B09DBE3
:10B40000D3F85021002AE1D00022C3F85021D3F80C
:10B41000A837C0E7D3F82C21002AD7D00022C3F8E0
:10B420002C21D3F8A836B6E7037BDBB9284606F013
:10B4300034FE012303FA00F03368B8F1000F23EA69
:10B440000003336001DA882DC0D106238DF8043063
:10B4500000238DF80730674B8DF806501B6801A854
:10B460009847B3E7002DB1D15A4B0122DA64ADE71A
:10B4700094FAA4F0D9F80020B0FA80F005FA00F3AD
:10B480001A430F28C9F8002024EA0304326840F365
:10B49000B780134200F0C580002CE9D14D4BD3F8A2
:10B4A00000215AB1C3F80041544B1C704A4B1C7028
:10B4B000012301934F4B01A81B689847454BD3F8D4
:10B4C0005421EAB10022C3F85421D3F804138902AD
:10B4D00016D58DF80420D3F82025ADF80620D3F832
:10B4E000C034002BD9F8003014BF4FF001224FF4C4
:10B4F00080721343C9F800303E4B01A81B6898477F
:10B50000344BD3F85821002A2ED00022C3F85821FA
:10B51000D3F80044C3F80044E50508D5374B0122B1
:10B520001A7002230193334B01A81B689847A005AA
:10B5300008D5324B00221A70032301932D4B01A82A
:10B540001B68984761050FD52C4B1A7862B1002211
:10B550001A70204B0122C3F808259A650423019331
:10B56000244B01A81B6898471A4BD3F85C310BB3E6
:10B570001E4B9B6813B93B785A061BD0154B002213
:10B58000C3F85C21D3F88034134A23F07F0313708F
:10B59000336823F001133360D9F8003023F480338B
:10B5A00043F00103C9F8003005230193114B01A8B2
:10B5B0001B6898473268D9F800301A4207D00B4808
:10B5C0000022002303F072FE002800F0D58003B0B3
:10B5D000BDE8F08F00700240151D0020141D0020F2
:10B5E0004819002008710240131D00204403002068
:10B5F0004C1900205019002030710240161D002007
:10B6000013407FF449AF062260F07F018DF80420DB
:10B610008DF806108DF80730D8F8003001A898474B
:10B620003AE70623A0F110018DF804308DF80610DA
:10B630008DF80750F0E718F0012314BF93FAA3F830
:10B6400098FAA8F8B8FA88F8B8F10F0F18D9A8F145
:10B650001005EDB22846FFF753FC04462846FFF7D5
:10B6600051FE6368B4F814C02268984266D81B1A69
:10B6700000EB020E11466360C4F800E0824660E011
:10B6800048F080052846FFF73BFC4368B0F814A05B
:10B6900001689A4528BF9A4601F06043B3F1005F04
:10B6A000044605D045484023524608F002F8434975
:10B6B0002368626853442360A368A2EB0A02DB0795
:10B6C00068B2626005D5BAF1000F04D1002323737C
:10B6D00001E0002AFAD04FF08053D3F83031082B24
:10B6E00002BF374B8222C3F81C2CD9F800303D70C2
:10B6F000012202FA08F823EA0803C9F80030236996
:10B7000015F0080F534423612D4B49D1002805F053
:10B710000F054FF0140000FB0530B5BF03EB8503A8
:10B720000A35C0F80016C0F80017B5BFC0F804A667
:10B73000C0F804A75A6043F8252048E711464FF0A7
:10B74000000A604526D1003B18BF012322B35045B3
:10B7500022D9012303FA08F32BEA030333600623FB
:10B760008DF80430174B8DF8065002221B68A27525
:10B770008DF8072001A89847D6F800B0D9F8003016
:10B780001BEA03087FF457AF0F4803B0BDE8F04F42
:10B7900003F068BD0023D9E768B2002B9BD195E781
:10B7A0000028B5BFC3F8A016C3F8A017C3F8A4A615
:10B7B000C3F8A4A7B4BF5A629A6408E758170020D8
:10B7C000007002405019002044030020024B40F456
:10B7D0008070C3F81805704700700240030713D447
:10B7E00000F00F0310F0800F084A0BBF03F58873B9
:10B7F00003F5847302EB830252F8230008BF5068FC
:10B80000003818BF012070470020704700700240C8
:10B81000034BC3F80C0540F48070C3F80C05704767
:10B82000007002400023036043600E4BD3F8802475
:10B830000270D3F884244270D3F88824D3F88C148F
:10B8400042EA01224280D3F89024D3F8941442EAC9
:10B8500001228280D3F89824D3F89C3442EA03234F
:10B86000C380704700700240014B0122DA647047C8
:10B8700000700240014B01221A65704700700240BF
:10B88000014B01225A65704700700240014B187845
:10B89000704700BF151D002010B502464FF0200371
:10B8A000EFF3118483F31288BFF36F8F06F0F5FB7B
:10B8B0000B49012303FA00F00B6823EA00030B6035
:10B8C00012F0080101BF02F00F02064B02F594725C
:10B8D00043F8221084F31188BFF36F8F10BD00BFAF
:10B8E0004C19002000700240F7B501464FF02003CC
:10B8F000EFF3118583F31288BFF36F8FFFF700FB1F
:10B900000646084606F0C9FB012211F0800F02FA34
:10B9100000F22E4818D1036832EA03040AD0084620
:10B92000FFF7BAFF0323B37585F31188BFF36F8F59
:10B9300003B0F0BD2649347323EA020303600B68A9
:10B9400023EA02030B60EDE70B0715D48029214B96
:10B950002FD001F00F0404F2DA346400C3F8004879
:10B96000D3F80448D3F80478E4B244F002043C432A
:10B97000C3F80448D3F80438154F04683B6864EAF8
:10B98000030C1CEA020FCFD013433B600023337338
:10B990000323B3758DF807300F4B8DF8061024EA9A
:10B9A0000204062204601B688DF8042001A8984751
:10B9B000BAE740F2B474C3F80048D3F80448D3F8A7
:10B9C0000478E4B244F00404D1E700BF4819002031
:10B9D0004C190020007002405019002038B5044670
:10B9E000094D4FF0FF324FF0FF33284603F05EFC65
:10B9F0002046FFF779FF284603F034FC034B8022F2
:10BA0000C3F8042138BD00BF4403002000E100E07A
:10BA1000F8B54FF0FF324FF0FF332B4803F046FCF0
:10BA20002A4B8022C3F884212720FEF795FA98B18B
:10BA3000274E284B34681B68240C24041C43012720
:10BA400064BB254D40F2FF1333602720C5F8044541
:10BA5000FEF76EFAC5F80043204A13788BB11E4BEF
:10BA60000021C3F808110121C3F80026C3F8041609
:10BA70005960D3F808110029FBD00021C3F8081140
:10BA80001170154B0022C3F80025FFF789FA0E4804
:10BA900003F0E8FB124B01221A70F8BD94FAA4F5EA
:10BAA000B5FA85F50F2D2846C6BFA5F11000C0B226
:10BAB00040F08000030701D4FFF716FF07FA05F5F1
:10BAC00024EA0504BCE700BF4403002000E100E0D5
:10BAD0004C1900204819002000700240131D00205E
:10BAE000171D002010B504464FF0FF324FF0FF3312
:10BAF000114803F0DBFB2046FFF7F6FE04F00F02CF
:10BB0000012393400D4A14F0800F14BFD2F8101592
:10BB1000D2F814156FEA030315BF0B400B40C2F8AF
:10BB20001035C2F81435044803F09CFB044B802206
:10BB3000C3F8042110BD00BF440300200070024080
:10BB400000E100E070B50446FFF77AFB68B904F045
:10BB50000F02012514F0800F154B05FA02F205D0F3
:10BB6000D3F810150A43C3F8102570BDD3F8141587
:10BB70000A43C3F81425631E062BF6D84FF02003A2
:10BB8000EFF3118683F31288BFF36F8F2046FFF720
:10BB900083FE204606F081FA064A1368854023EAB0
:10BBA0000503136086F31188BFF36F8FDDE700BFD5
:10BBB0000070024048190020030610B5044605D461
:10BBC000FFF70CFE10B12046FFF766FE014BC3F8ED
:10BBD000184510BD00700240084B70B5C31A0D46E1
:10BBE00007499B10044659430648402206F095FA3F
:10BBF0002B4601462046BDE87040184768190020D2
:10BC0000B76DDBB6B03B030073B50C4C0C4A402358
:10BC1000041B00930D460B460A49A41061430646D7
:10BC2000094806F0A7FA011E05DA30462B4602B095
:10BC3000BDE87040184702B070BD00BF6819002011
:10BC4000E1210300B76DDBB6B03B0300002270B505
:10BC5000012104461046FEF78DF90F4801F0AEFCB5
:10BC60000E4B984215D101F0B9FC26690C493046BB
:10BC700005F027FF00280BDB0125356424690849FE
:10BC800004F11C0005F01DFF002801DBE564002025
:10BC900070BD6FF00400FBE7D9BC02000000AD0BE3
:10BCA0006041030070B501460C2309484B43C4189A
:10BCB000D4E90E56403300221844A26306F01AFA63
:10BCC0002DB132462B460348BDE87040184770BD81
:10BCD00068190020B03B030010B1012804D0704760
:10BCE000034B1B6C5B0701D1FFF7DCBF704700BF44
:10BCF0006819002008B54FF02003EFF3118183F39A
:10BD00001288BFF36F8F124A136843F0020010606D
:10BD1000DA0708D481F31188BFF36F8F0120BDE8E3
:10BD2000084001F073BC4FF08043D3F80C24D3F8E3
:10BD30000C34DB07EED5074806F0DCF981F31188F7
:10BD4000BFF36F8F0020BDE80840FFF7ABBF00BF17
:10BD5000B8190020A81900201FB500220123CDE941
:10BD60000223094ACDF800D06B46CDF804D006F086
:10BD700030FA002805DB4FF480420023684603F0C8
:10BD800095FA05B05DF804FBFF21030010B54FF0F4
:10BD90002003EFF3118483F31288BFF36F8F074AF8
:10BDA000136823F00201DB07116002D4012006F0C2
:10BDB0004BFF84F31188BFF36F8F10BDB8190020BB
:10BDC000024AC3B21C2003FB002070476819002000
:10BDD0002DE9F0413849BFF35B8F0746012251E856
:10BDE000003F41E800200028F9D1BFF35B8F33B951
:10BDF000324933484B60CB608A6005F075FE7B1E8C
:10BE0000012B2BD8012F07D14FF08043D3F81C34DE
:10BE100003F00303012B21D007F028F90546F8B9F8
:10BE2000284B1B78E3B14FF080430222C3F808236C
:10BE30000646DFF894804FF08044D4F81824D4F8F4
:10BE40001834D20316D503F00303012B01D0012FC0
:10BE500010D15DB386F31188BFF36F8FBDE8F08119
:10BE60004FF02003EFF3118683F31288BFF36F8F37
:10BE70000125DEE7ADB13046FEF712F9D4F81835EA
:10BE8000002BDAD1D4F80421002AD6D0C4F804312A
:10BE9000D4F804310123C4F81835C8F88031A36000
:10BEA000CBE70021212003F067FEE7E74FF0804356
:10BEB0000222C3F80423D1E764190020541900209A
:10BEC000841900204C1D002000E100E008B507485F
:10BED00007F073F838B10648FEF710FA0448FCF78B
:10BEE0005BFA002008BD6FF01200FBE7EC3B03009B
:10BEF000F5BE02000A2838B5074D044604D1AB68E8
:10BF00000D215B6828469847AB6803485B68E1B23F
:10BF10009847204638BD00BFEC3B0300F0B54068B1
:10BF2000057B01F01F0444EA4514056987B0002D24
:10BF300064D0B2F5001F00F1100506D12146284655
:10BF400006F002FF002007B0F0BD01AE0027B2F5F9
:10BF5000800F0197776039D1B3F1007F14BF0523BB
:10BF600004238DF804300023CDE904630393836830
:10BF700023FA01F111F001011AD1B2F1A07F17D11A
:10BF800004F01F03620903F5E0732AD0012A3BD1B4
:10BF90001F4A52F82330DB070AD40DF1030632465C
:10BFA0002146284601F010FE1A4B98421CD00296FA
:10BFB00003AA2146284601F0C9FC174B984220D11C
:10BFC00001222146284601F067FEBBE7B3F1C06FAE
:10BFD00005D0B3F1007F14BF01230223C1E703237F
:10BFE000BFE74FF0A042D4E73146284601F04EFEAD
:10BFF000094B9842DBD06FF00B00A4E76FF085008F
:10C00000A1E76FF015009EE751F82330FFDE00BF77
:10C01000000300500400AD0B0000AD0B38B54568BF
:10C020002B69B3B11035284601F020FE044680B9D3
:10C030000146284601F0E2FD084B98420BD1084921
:10C040002246284601F0BAFD224605210620FDF7CA
:10C0500091FF002038BD6FF00400FBE70000AD0B3E
:10C0600065C00200420970B5034602D0012A17D00C
:10C0700070BD0D4E326951680029F9D003F01F03DD
:10C0800001250C689D400029F2D08A682A4002D020
:10C090004B68304698472CB1236821461C46F2E78E
:10C0A000024EE7E72346F8E7D83B0300C43B030012
:10C0B0002DE9F043466840F20635D006337B87B061
:10C0C00002EA050554BFC2F34010032001F01F0728
:10C0D000B5F5837F144647EA43178DF8030044D033
:10C0E0000FD8062D18D007D8B5B1022D3FD06FF06C
:10C0F000150007B0BDE8F083B5F5807FF7D10125C5
:10C100000AE040F20222954233D0B5F5407F32D0AA
:10C11000B5F5007FEBD1022522032ED572680123ED
:10C120008B40C2F80835326992BB07F01F037F09C4
:10C130002BD0012F79D13F4A02EB830284F4803364
:10C14000D2F80017C3F30043C4F3404444EA430465
:10C1500021F4E16144EA800421F0070144EA052367
:10C160000B43C2F800370020C3E70725D4E70425B6
:10C17000D2E70525D0E70325CEE7630341BF0123BE
:10C1800072688B40C2F80C35CDE74FF0A042D3E780
:10C1900010360DF102023946304601F015FD14F457
:10C1A000403F80460CD13946304606F0CBFD224B4D
:10C1B0009845D8D19DF80210304601F061FDD2E7D4
:10C1C00001AB4FF0000903AA39463046CDE90439E6
:10C1D000CDE90199CDF80C9001F0B8FB164B9842CF
:10C1E00085D114F4003315D09DF803308DF80E304E
:10C1F00084F48034C4F300444B4603AA39463046E5
:10C200008DF80C508DF80D4001F05AFC0A4B984205
:10C21000CDD06CE7CDE9043303AA0DF10303394611
:10C220003046039301F092FBF0E703F5E07352F818
:10C230002330FFDE000300500000AD0B08B543685B
:10C240001B68D3F80805D3F80C1502F0A5FC034BC6
:10C25000984214BF6FF00F00002008BD0000AD0B26
:10C2600037B50446002201210420FDF783FE6368F0
:10C270009D6901AA0021284606F072F8002814DB07
:10C28000019B2A681979186800F0D6F900280CDBA0
:10C2900060682369064A00F1080102F005F8054BC1
:10C2A000984214BF6FF00F00002003B030BD00BFF4
:10C2B000B9C202000000AD0B0378012B08D0022B9D
:10C2C00008D04BB9054B0B6201F1100002F0CABF58
:10C2D000034BF8E7034BF6E7034BF4E70000AD0B25
:10C2E0000100AE0B0200AE0B0100AD0B2DE9F04FCB
:10C2F0008BB005460C4691460193476806694FF09E
:10C30000FF324FF0FF33304602F0D0FF06F1100A43
:10C3100000220023504602F0C9FF384602F008F818
:10C32000DFF8C0B04FF00008C14501D800242EE06E
:10C33000237A039313F008014DD112220DF1160058
:10C34000029107F0AEF9039B60680199069003F033
:10C35000010220688DF8151013F0020F02998DF874
:10C36000142008901DD109F1FF33434502D9237DE4
:10C370005B0718D57ABB202205A9384602F004F8DD
:10C38000584512D0184B984228D06FF00404384614
:10C3900001F0DEFF304602F065FF20460BB0BDE83D
:10C3A000F08F0A46E8E74022E6E74FF48042002398
:10C3B000504602F07BFF30B1384601F0C9FF2846F5
:10C3C000FFF73CFFE1E7336A5B4504F10C04DCD185
:10C3D00008F10108A8E76FF08504D8E76FF00F04B3
:10C3E000D5E700BF0000AD0B0B00AD0B38B54468BE
:10C3F0000569E3699847206A05F0A2FF00280DDB74
:10C400002B46084A04F10801204602F0D9F8064BF1
:10C41000984204D1204602F017F9002038BD6FF091
:10C420000400FBE769C402000000AD0B70B544686E
:10C430002368D3F80855D3F80C65204602F014F9A8
:10C440003146284602F0A8FB0546206A05F078FF31
:10C45000204602F0F9F8034B9D4214BF6FF00F0025
:10C46000002070BD0000AD0B0378012B08D0022B1B
:10C4700008D04BB9054B0B6201F1100002F0F2BE7F
:10C48000034BF8E7034BF6E7034BF4E70000AD0B73
:10C490000100AE0B0200AE0B0100AD0B2DE9F04F19
:10C4A000D0F804A006698BB0934614221D4680463E
:10C4B000BAF81830D6F8249002930C460DEB02001F
:10C4C000002107F0EEF88DF815504FF0FF324FF0D5
:10C4D000FF33304602F0EAFE06F11003019300221A
:10C4E000002306F1100002F0E1FE00273D465F4503
:10C4F00001D3002460E0207A020700F18280013736
:10C500005F4521680AD2830708D4237D80EA0302AD
:10C5100002F0010203F004031A4307D025B901F029
:10C520006043B3F1005F17D0002300E0012362688D
:10C53000DDF808E005EB020CF44565D8C00705D42A
:10C5400009EB0500039307F09EF8039B62682A44F9
:10C5500095B2002B3FD1FDB923680893636800258D
:10C56000227A069302F001018DF81410BAF8241013
:10C5700099424CD382F00202C2F34002520105A953
:10C58000504602F08FF8234B984209D00B33984263
:10C5900010D16FF00F040FE0CDF820902B46DFE7AD
:10C5A0004FF480420198002302F080FE58B14046CB
:10C5B000FFF73CFF6FF00404304602F053FE2046C4
:10C5C0000BB0BDE8F08F336A124A9342F2D1237A5E
:10C5D000DB0702D400250C3489E7089B9945F9D183
:10C5E000234608E0A91AD86803938DB219FA81F19D
:10C5F00007F049F8039B5A689542A3F10C03F1D266
:10C60000E8E76FF08504D7E76FF01B04D4E76FF01D
:10C610001B04D4E70000AD0B036803F01F025B09A5
:10C62000026004D0012B034818BF002070474FF070
:10C63000A0407047000300502DE9F04FDFF89481CF
:10C64000DFF8949185B01546824600EB8101514593
:10C6500003D1002005B0BDE8F08FDAF80030DE0429
:10C66000C3F3432203F07F0400F1AE807F2C4FEA36
:10C67000134318F8027008BF4FF0FF34222B00F26A
:10C68000A680DFE803F012191F22252B22A4A4A400
:10C69000A43C68A4A4A4A4A4A4A4A4A46B81848797
:10C6A000A4A4A48A9295989B9E00C5F80C45601C92
:10C6B0005ED10AF1040ACAE7C5F81445621CF8D035
:10C6C00000265FE0C5F80845F1E7C5F81045F5E735
:10C6D000631CC5F80845ECD0002604E0661CC5F8CC
:10C6E0000C45E6D0012603A80394FFF795FF039BB2
:10C6F0004FF0010B0BFA03F3C0F80C3508E0C5F856
:10C700000845002FDAD1631CD3D00026B346062794
:10C71000DAF80030019303F40052002A03A81CBF8A
:10C720004FF0000B01260394FFF776FF039A019B5D
:10C7300000EB8200C3F3C114D0F800273B0243EAA8
:10C74000840343EA0B0302EA0902134343EA460364
:10C75000C0F80037ADE7C5F80C45D2E7C5F860452D
:10C76000601CDAF80030A4D0C3F38033002BB9D0BA
:10C7700003A80394FFF750FF039B012606FA03F377
:10C78000C0F80835B346C3E7C5F86445E8E7C5F81F
:10C790006845E5E7C5F86C45E2E7C5F82445621C45
:10C7A00087D04FF0000B0126B2E7C5F828457EE799
:10C7B000C5F83045F3E7C5F83445F0E7C5F8384526
:10C7C000EDE7C5F83C4572E76FF0150042E76FF002
:10C7D00085003FE7C5470300F0F8FCFF38B570B1AE
:10C7E000074C084A4FF400450021E0FB05410023B7
:10C7F0002046FBF71BF9BDE8384003F0BDB938BD52
:10C800003F420F0040420F0070B505692A6A0B01D4
:10C81000D6680C4603F0F003F0221121B04700283F
:10C8200009DB0B2C96BF054B41F6082333F8143077
:10C83000EB84002070BD6FF00400FBE71E45030091
:10C8400070B505692A6A0B01D6680C4603F0F0033F
:10C85000F0221021B047002809DB0B2C96BF054BB6
:10C8600041F6082333F81430AB84002070BD6FF01C
:10C870000400FBE71E45030073B543681B680446CC
:10C88000984700280BDB25692B6ADE6880231A464F
:10C8900012212046B047002803DA6FF0040002B0EE
:10C8A00070BD48F6B80006F083FB2B6A0DF1070255
:10C8B0009B680F21204698470028EEDB9DF8073043
:10C8C0006A2BEAD10021204605F06BFE0028E4DB4C
:10C8D0001F4BEB6000212046FFF7B2FF0028DCDB96
:10C8E0000421204605F06DFE0028D6DB194BEB61D4
:10C8F00000212046FFF788FF0028CEDB2B6A0722A5
:10C90000DE680A2100232046B0470028C5DB2B6AD9
:10C910004622DE68122144232046B0470028BCDBB3
:10C920002B6ADE6810231A4615212046B0470028DE
:10C93000B3DB2B6ADD6880231A4616212046A84700
:10C940000028AADB204600F017F800EAE070A6E70E
:10C9500023DB793D00008C4008B502694368054936
:10C960001162586806F029FB00280CBF6FF0120016
:10C97000002008BD28430300F8B546680569044651
:10C98000F06806F01AFB00283ED0738AF068317C0C
:10C9900043F48032D0F810C0D0F808E013F0010F53
:10C9A0004FF00107DCF8003007FA01F714BF3B43F2
:10C9B000BB43CCF80030DEF800309847337C144A93
:10C9C000012707FA03F3C5E90C23F0688368DB69E4
:10C9D00005F12C0113B96FF00400F8BD3A469847F1
:10C9E0000028F8DB2B6ADE6803231A460D21204657
:10C9F000B0470028EFDB074BAC626B6460683946D8
:10CA000005F00EFF0020E8E76FF01200E5E700BF39
:10CA10006528030081280300014B01221A6070473A
:10CA200000C000400C2903690BD15B6A0649074826
:10CA30004B4393FBF0F100FB113311605360002076
:10CA400070476FF08500704790D0030040420F00A0
:10CA5000044B00690022C3F80021D3F8003102F032
:10CA600001BC00BF00C000407FB50569AB6A63B37D
:10CA70003A2901D00C292BD105F110064FF0FF32D5
:10CA80004FF0FF33304602F03FFB134B0193A86A8F
:10CA90000323002469460394029305F025F84FF020
:10CAA000FF324FF0FF33284602F000FCA86A05F081
:10CAB00073F80A4BD3F808256A6201225A6030469F
:10CAC00002F0E6FA204604B070BD6FF00A00FAE703
:10CAD0006FF08500F7E700BF19CA020000C00040F0
